{
	"Vending_Machine/Vending_Machine.sol": {
		"VendingMachine": {
			"abi": [
				{
					"inputs": [],
					"stateMutability": "nonpayable",
					"type": "constructor"
				},
				{
					"inputs": [
						{
							"internalType": "address",
							"name": "",
							"type": "address"
						}
					],
					"name": "donutBalances",
					"outputs": [
						{
							"internalType": "uint256",
							"name": "",
							"type": "uint256"
						}
					],
					"stateMutability": "view",
					"type": "function"
				},
				{
					"inputs": [],
					"name": "getVendingMachineBalance",
					"outputs": [
						{
							"internalType": "uint256",
							"name": "",
							"type": "uint256"
						}
					],
					"stateMutability": "view",
					"type": "function"
				},
				{
					"inputs": [],
					"name": "owner",
					"outputs": [
						{
							"internalType": "address",
							"name": "",
							"type": "address"
						}
					],
					"stateMutability": "view",
					"type": "function"
				},
				{
					"inputs": [
						{
							"internalType": "uint256",
							"name": "amount",
							"type": "uint256"
						}
					],
					"name": "purchase",
					"outputs": [],
					"stateMutability": "payable",
					"type": "function"
				},
				{
					"inputs": [
						{
							"internalType": "uint256",
							"name": "amount",
							"type": "uint256"
						}
					],
					"name": "restock",
					"outputs": [],
					"stateMutability": "nonpayable",
					"type": "function"
				}
			],
			"devdoc": {
				"kind": "dev",
				"methods": {},
				"version": 1
			},
			"evm": {
				"assembly": "    /* \"Vending_Machine/Vending_Machine.sol\":61:1206  contract VendingMachine{... */\n  mstore(0x40, 0x80)\n    /* \"Vending_Machine/Vending_Machine.sol\":366:462  constructor() {... */\n  callvalue\n  dup1\n  iszero\n  tag_1\n  jumpi\n  0x00\n  dup1\n  revert\ntag_1:\n  pop\n    /* \"Vending_Machine/Vending_Machine.sol\":399:409  msg.sender */\n  caller\n    /* \"Vending_Machine/Vending_Machine.sol\":391:396  owner */\n  0x00\n  dup1\n    /* \"Vending_Machine/Vending_Machine.sol\":391:409  owner = msg.sender */\n  0x0100\n  exp\n  dup2\n  sload\n  dup2\n  0xffffffffffffffffffffffffffffffffffffffff\n  mul\n  not\n  and\n  swap1\n  dup4\n  0xffffffffffffffffffffffffffffffffffffffff\n  and\n  mul\n  or\n  swap1\n  sstore\n  pop\n    /* \"Vending_Machine/Vending_Machine.sol\":451:454  100 */\n  0x64\n    /* \"Vending_Machine/Vending_Machine.sol\":420:433  donutBalances */\n  0x01\n    /* \"Vending_Machine/Vending_Machine.sol\":420:448  donutBalances[address(this)] */\n  0x00\n    /* \"Vending_Machine/Vending_Machine.sol\":442:446  this */\n  address\n    /* \"Vending_Machine/Vending_Machine.sol\":420:448  donutBalances[address(this)] */\n  0xffffffffffffffffffffffffffffffffffffffff\n  and\n  0xffffffffffffffffffffffffffffffffffffffff\n  and\n  dup2\n  mstore\n  0x20\n  add\n  swap1\n  dup2\n  mstore\n  0x20\n  add\n  0x00\n  keccak256\n    /* \"Vending_Machine/Vending_Machine.sol\":420:454  donutBalances[address(this)] = 100 */\n  dup2\n  swap1\n  sstore\n  pop\n    /* \"Vending_Machine/Vending_Machine.sol\":61:1206  contract VendingMachine{... */\n  dataSize(sub_0)\n  dup1\n  dataOffset(sub_0)\n  0x00\n  codecopy\n  0x00\n  return\nstop\n\nsub_0: assembly {\n        /* \"Vending_Machine/Vending_Machine.sol\":61:1206  contract VendingMachine{... */\n      mstore(0x40, 0x80)\n      jumpi(tag_1, lt(calldatasize, 0x04))\n      shr(0xe0, calldataload(0x00))\n      dup1\n      0x8da5cb5b\n      eq\n      tag_2\n      jumpi\n      dup1\n      0x9a020d8a\n      eq\n      tag_3\n      jumpi\n      dup1\n      0xc21a702a\n      eq\n      tag_4\n      jumpi\n      dup1\n      0xe7644d34\n      eq\n      tag_5\n      jumpi\n      dup1\n      0xefef39a1\n      eq\n      tag_6\n      jumpi\n    tag_1:\n      0x00\n      dup1\n      revert\n        /* \"Vending_Machine/Vending_Machine.sol\":156:176  address public owner */\n    tag_2:\n      callvalue\n      dup1\n      iszero\n      tag_7\n      jumpi\n      0x00\n      dup1\n      revert\n    tag_7:\n      pop\n      tag_8\n      tag_9\n      jump\t// in\n    tag_8:\n      mload(0x40)\n      tag_10\n      swap2\n      swap1\n      tag_11\n      jump\t// in\n    tag_10:\n      mload(0x40)\n      dup1\n      swap2\n      sub\n      swap1\n      return\n        /* \"Vending_Machine/Vending_Machine.sol\":185:231  mapping (address => uint) public donutBalances */\n    tag_3:\n      callvalue\n      dup1\n      iszero\n      tag_12\n      jumpi\n      0x00\n      dup1\n      revert\n    tag_12:\n      pop\n      tag_13\n      0x04\n      dup1\n      calldatasize\n      sub\n      dup2\n      add\n      swap1\n      tag_14\n      swap2\n      swap1\n      tag_15\n      jump\t// in\n    tag_14:\n      tag_16\n      jump\t// in\n    tag_13:\n      mload(0x40)\n      tag_17\n      swap2\n      swap1\n      tag_18\n      jump\t// in\n    tag_17:\n      mload(0x40)\n      dup1\n      swap2\n      sub\n      swap1\n      return\n        /* \"Vending_Machine/Vending_Machine.sol\":595:771  function restock(uint amount) public {... */\n    tag_4:\n      callvalue\n      dup1\n      iszero\n      tag_19\n      jumpi\n      0x00\n      dup1\n      revert\n    tag_19:\n      pop\n      tag_20\n      0x04\n      dup1\n      calldatasize\n      sub\n      dup2\n      add\n      swap1\n      tag_21\n      swap2\n      swap1\n      tag_22\n      jump\t// in\n    tag_21:\n      tag_23\n      jump\t// in\n    tag_20:\n      stop\n        /* \"Vending_Machine/Vending_Machine.sol\":470:587  function getVendingMachineBalance() public view returns (uint) {... */\n    tag_5:\n      callvalue\n      dup1\n      iszero\n      tag_24\n      jumpi\n      0x00\n      dup1\n      revert\n    tag_24:\n      pop\n      tag_25\n      tag_26\n      jump\t// in\n    tag_25:\n      mload(0x40)\n      tag_27\n      swap2\n      swap1\n      tag_18\n      jump\t// in\n    tag_27:\n      mload(0x40)\n      dup1\n      swap2\n      sub\n      swap1\n      return\n        /* \"Vending_Machine/Vending_Machine.sol\":779:1201  function purchase(uint amount) public payable {... */\n    tag_6:\n      tag_28\n      0x04\n      dup1\n      calldatasize\n      sub\n      dup2\n      add\n      swap1\n      tag_29\n      swap2\n      swap1\n      tag_22\n      jump\t// in\n    tag_29:\n      tag_30\n      jump\t// in\n    tag_28:\n      stop\n        /* \"Vending_Machine/Vending_Machine.sol\":156:176  address public owner */\n    tag_9:\n      0x00\n      dup1\n      sload\n      swap1\n      0x0100\n      exp\n      swap1\n      div\n      0xffffffffffffffffffffffffffffffffffffffff\n      and\n      dup2\n      jump\t// out\n        /* \"Vending_Machine/Vending_Machine.sol\":185:231  mapping (address => uint) public donutBalances */\n    tag_16:\n      mstore(0x20, 0x01)\n      dup1\n      0x00\n      mstore\n      keccak256(0x00, 0x40)\n      0x00\n      swap2\n      pop\n      swap1\n      pop\n      sload\n      dup2\n      jump\t// out\n        /* \"Vending_Machine/Vending_Machine.sol\":595:771  function restock(uint amount) public {... */\n    tag_23:\n        /* \"Vending_Machine/Vending_Machine.sol\":665:670  owner */\n      0x00\n      dup1\n      sload\n      swap1\n      0x0100\n      exp\n      swap1\n      div\n      0xffffffffffffffffffffffffffffffffffffffff\n      and\n        /* \"Vending_Machine/Vending_Machine.sol\":651:670  msg.sender == owner */\n      0xffffffffffffffffffffffffffffffffffffffff\n      and\n        /* \"Vending_Machine/Vending_Machine.sol\":651:661  msg.sender */\n      caller\n        /* \"Vending_Machine/Vending_Machine.sol\":651:670  msg.sender == owner */\n      0xffffffffffffffffffffffffffffffffffffffff\n      and\n      eq\n        /* \"Vending_Machine/Vending_Machine.sol\":643:714  require(msg.sender == owner, \"Only the owner can restock this Machine\") */\n      tag_32\n      jumpi\n      mload(0x40)\n      0x08c379a000000000000000000000000000000000000000000000000000000000\n      dup2\n      mstore\n      0x04\n      add\n      tag_33\n      swap1\n      tag_34\n      jump\t// in\n    tag_33:\n      mload(0x40)\n      dup1\n      swap2\n      sub\n      swap1\n      revert\n    tag_32:\n        /* \"Vending_Machine/Vending_Machine.sol\":757:763  amount */\n      dup1\n        /* \"Vending_Machine/Vending_Machine.sol\":725:738  donutBalances */\n      0x01\n        /* \"Vending_Machine/Vending_Machine.sol\":725:753  donutBalances[address(this)] */\n      0x00\n        /* \"Vending_Machine/Vending_Machine.sol\":747:751  this */\n      address\n        /* \"Vending_Machine/Vending_Machine.sol\":725:753  donutBalances[address(this)] */\n      0xffffffffffffffffffffffffffffffffffffffff\n      and\n      0xffffffffffffffffffffffffffffffffffffffff\n      and\n      dup2\n      mstore\n      0x20\n      add\n      swap1\n      dup2\n      mstore\n      0x20\n      add\n      0x00\n      keccak256\n      0x00\n        /* \"Vending_Machine/Vending_Machine.sol\":725:763  donutBalances[address(this)] += amount */\n      dup3\n      dup3\n      sload\n      tag_35\n      swap2\n      swap1\n      tag_36\n      jump\t// in\n    tag_35:\n      swap3\n      pop\n      pop\n      dup2\n      swap1\n      sstore\n      pop\n        /* \"Vending_Machine/Vending_Machine.sol\":595:771  function restock(uint amount) public {... */\n      pop\n      jump\t// out\n        /* \"Vending_Machine/Vending_Machine.sol\":470:587  function getVendingMachineBalance() public view returns (uint) {... */\n    tag_26:\n        /* \"Vending_Machine/Vending_Machine.sol\":527:531  uint */\n      0x00\n        /* \"Vending_Machine/Vending_Machine.sol\":551:564  donutBalances */\n      0x01\n        /* \"Vending_Machine/Vending_Machine.sol\":551:579  donutBalances[address(this)] */\n      0x00\n        /* \"Vending_Machine/Vending_Machine.sol\":573:577  this */\n      address\n        /* \"Vending_Machine/Vending_Machine.sol\":551:579  donutBalances[address(this)] */\n      0xffffffffffffffffffffffffffffffffffffffff\n      and\n      0xffffffffffffffffffffffffffffffffffffffff\n      and\n      dup2\n      mstore\n      0x20\n      add\n      swap1\n      dup2\n      mstore\n      0x20\n      add\n      0x00\n      keccak256\n      sload\n        /* \"Vending_Machine/Vending_Machine.sol\":544:579  return donutBalances[address(this)] */\n      swap1\n      pop\n        /* \"Vending_Machine/Vending_Machine.sol\":470:587  function getVendingMachineBalance() public view returns (uint) {... */\n      swap1\n      jump\t// out\n        /* \"Vending_Machine/Vending_Machine.sol\":779:1201  function purchase(uint amount) public payable {... */\n    tag_30:\n        /* \"Vending_Machine/Vending_Machine.sol\":966:973  2 ether */\n      0x1bc16d674ec80000\n        /* \"Vending_Machine/Vending_Machine.sol\":957:963  amount */\n      dup2\n        /* \"Vending_Machine/Vending_Machine.sol\":957:973  amount * 2 ether */\n      tag_39\n      swap2\n      swap1\n      tag_40\n      jump\t// in\n    tag_39:\n        /* \"Vending_Machine/Vending_Machine.sol\":944:953  msg.value */\n      callvalue\n        /* \"Vending_Machine/Vending_Machine.sol\":944:973  msg.value >= amount * 2 ether */\n      lt\n      iszero\n        /* \"Vending_Machine/Vending_Machine.sol\":936:1018  require(msg.value >= amount * 2 ether, \"You must pay atleast two ether per donut\") */\n      tag_41\n      jumpi\n      mload(0x40)\n      0x08c379a000000000000000000000000000000000000000000000000000000000\n      dup2\n      mstore\n      0x04\n      add\n      tag_42\n      swap1\n      tag_43\n      jump\t// in\n    tag_42:\n      mload(0x40)\n      dup1\n      swap2\n      sub\n      swap1\n      revert\n    tag_41:\n        /* \"Vending_Machine/Vending_Machine.sol\":1069:1075  amount */\n      dup1\n        /* \"Vending_Machine/Vending_Machine.sol\":1037:1050  donutBalances */\n      0x01\n        /* \"Vending_Machine/Vending_Machine.sol\":1037:1065  donutBalances[address(this)] */\n      0x00\n        /* \"Vending_Machine/Vending_Machine.sol\":1059:1063  this */\n      address\n        /* \"Vending_Machine/Vending_Machine.sol\":1037:1065  donutBalances[address(this)] */\n      0xffffffffffffffffffffffffffffffffffffffff\n      and\n      0xffffffffffffffffffffffffffffffffffffffff\n      and\n      dup2\n      mstore\n      0x20\n      add\n      swap1\n      dup2\n      mstore\n      0x20\n      add\n      0x00\n      keccak256\n      sload\n        /* \"Vending_Machine/Vending_Machine.sol\":1037:1075  donutBalances[address(this)] >= amount */\n      lt\n      iszero\n        /* \"Vending_Machine/Vending_Machine.sol\":1029:1098  require(donutBalances[address(this)] >= amount, \"Not Enough Donuts \") */\n      tag_44\n      jumpi\n      mload(0x40)\n      0x08c379a000000000000000000000000000000000000000000000000000000000\n      dup2\n      mstore\n      0x04\n      add\n      tag_45\n      swap1\n      tag_46\n      jump\t// in\n    tag_45:\n      mload(0x40)\n      dup1\n      swap2\n      sub\n      swap1\n      revert\n    tag_44:\n        /* \"Vending_Machine/Vending_Machine.sol\":1141:1147  amount */\n      dup1\n        /* \"Vending_Machine/Vending_Machine.sol\":1109:1122  donutBalances */\n      0x01\n        /* \"Vending_Machine/Vending_Machine.sol\":1109:1137  donutBalances[address(this)] */\n      0x00\n        /* \"Vending_Machine/Vending_Machine.sol\":1131:1135  this */\n      address\n        /* \"Vending_Machine/Vending_Machine.sol\":1109:1137  donutBalances[address(this)] */\n      0xffffffffffffffffffffffffffffffffffffffff\n      and\n      0xffffffffffffffffffffffffffffffffffffffff\n      and\n      dup2\n      mstore\n      0x20\n      add\n      swap1\n      dup2\n      mstore\n      0x20\n      add\n      0x00\n      keccak256\n      0x00\n        /* \"Vending_Machine/Vending_Machine.sol\":1109:1147  donutBalances[address(this)] -= amount */\n      dup3\n      dup3\n      sload\n      tag_47\n      swap2\n      swap1\n      tag_48\n      jump\t// in\n    tag_47:\n      swap3\n      pop\n      pop\n      dup2\n      swap1\n      sstore\n      pop\n        /* \"Vending_Machine/Vending_Machine.sol\":1187:1193  amount */\n      dup1\n        /* \"Vending_Machine/Vending_Machine.sol\":1158:1171  donutBalances */\n      0x01\n        /* \"Vending_Machine/Vending_Machine.sol\":1158:1183  donutBalances[msg.sender] */\n      0x00\n        /* \"Vending_Machine/Vending_Machine.sol\":1172:1182  msg.sender */\n      caller\n        /* \"Vending_Machine/Vending_Machine.sol\":1158:1183  donutBalances[msg.sender] */\n      0xffffffffffffffffffffffffffffffffffffffff\n      and\n      0xffffffffffffffffffffffffffffffffffffffff\n      and\n      dup2\n      mstore\n      0x20\n      add\n      swap1\n      dup2\n      mstore\n      0x20\n      add\n      0x00\n      keccak256\n      0x00\n        /* \"Vending_Machine/Vending_Machine.sol\":1158:1193  donutBalances[msg.sender] += amount */\n      dup3\n      dup3\n      sload\n      tag_49\n      swap2\n      swap1\n      tag_36\n      jump\t// in\n    tag_49:\n      swap3\n      pop\n      pop\n      dup2\n      swap1\n      sstore\n      pop\n        /* \"Vending_Machine/Vending_Machine.sol\":779:1201  function purchase(uint amount) public payable {... */\n      pop\n      jump\t// out\n        /* \"#utility.yul\":7:133   */\n    tag_50:\n        /* \"#utility.yul\":44:51   */\n      0x00\n        /* \"#utility.yul\":84:126   */\n      0xffffffffffffffffffffffffffffffffffffffff\n        /* \"#utility.yul\":77:82   */\n      dup3\n        /* \"#utility.yul\":73:127   */\n      and\n        /* \"#utility.yul\":62:127   */\n      swap1\n      pop\n        /* \"#utility.yul\":7:133   */\n      swap2\n      swap1\n      pop\n      jump\t// out\n        /* \"#utility.yul\":139:235   */\n    tag_51:\n        /* \"#utility.yul\":176:183   */\n      0x00\n        /* \"#utility.yul\":205:229   */\n      tag_73\n        /* \"#utility.yul\":223:228   */\n      dup3\n        /* \"#utility.yul\":205:229   */\n      tag_50\n      jump\t// in\n    tag_73:\n        /* \"#utility.yul\":194:229   */\n      swap1\n      pop\n        /* \"#utility.yul\":139:235   */\n      swap2\n      swap1\n      pop\n      jump\t// out\n        /* \"#utility.yul\":241:359   */\n    tag_52:\n        /* \"#utility.yul\":328:352   */\n      tag_75\n        /* \"#utility.yul\":346:351   */\n      dup2\n        /* \"#utility.yul\":328:352   */\n      tag_51\n      jump\t// in\n    tag_75:\n        /* \"#utility.yul\":323:326   */\n      dup3\n        /* \"#utility.yul\":316:353   */\n      mstore\n        /* \"#utility.yul\":241:359   */\n      pop\n      pop\n      jump\t// out\n        /* \"#utility.yul\":365:587   */\n    tag_11:\n        /* \"#utility.yul\":458:462   */\n      0x00\n        /* \"#utility.yul\":496:498   */\n      0x20\n        /* \"#utility.yul\":485:494   */\n      dup3\n        /* \"#utility.yul\":481:499   */\n      add\n        /* \"#utility.yul\":473:499   */\n      swap1\n      pop\n        /* \"#utility.yul\":509:580   */\n      tag_77\n        /* \"#utility.yul\":577:578   */\n      0x00\n        /* \"#utility.yul\":566:575   */\n      dup4\n        /* \"#utility.yul\":562:579   */\n      add\n        /* \"#utility.yul\":553:559   */\n      dup5\n        /* \"#utility.yul\":509:580   */\n      tag_52\n      jump\t// in\n    tag_77:\n        /* \"#utility.yul\":365:587   */\n      swap3\n      swap2\n      pop\n      pop\n      jump\t// out\n        /* \"#utility.yul\":674:791   */\n    tag_54:\n        /* \"#utility.yul\":783:784   */\n      0x00\n        /* \"#utility.yul\":780:781   */\n      dup1\n        /* \"#utility.yul\":773:785   */\n      revert\n        /* \"#utility.yul\":920:1042   */\n    tag_56:\n        /* \"#utility.yul\":993:1017   */\n      tag_82\n        /* \"#utility.yul\":1011:1016   */\n      dup2\n        /* \"#utility.yul\":993:1017   */\n      tag_51\n      jump\t// in\n    tag_82:\n        /* \"#utility.yul\":986:991   */\n      dup2\n        /* \"#utility.yul\":983:1018   */\n      eq\n        /* \"#utility.yul\":973:1036   */\n      tag_83\n      jumpi\n        /* \"#utility.yul\":1032:1033   */\n      0x00\n        /* \"#utility.yul\":1029:1030   */\n      dup1\n        /* \"#utility.yul\":1022:1034   */\n      revert\n        /* \"#utility.yul\":973:1036   */\n    tag_83:\n        /* \"#utility.yul\":920:1042   */\n      pop\n      jump\t// out\n        /* \"#utility.yul\":1048:1187   */\n    tag_57:\n        /* \"#utility.yul\":1094:1099   */\n      0x00\n        /* \"#utility.yul\":1132:1138   */\n      dup2\n        /* \"#utility.yul\":1119:1139   */\n      calldataload\n        /* \"#utility.yul\":1110:1139   */\n      swap1\n      pop\n        /* \"#utility.yul\":1148:1181   */\n      tag_85\n        /* \"#utility.yul\":1175:1180   */\n      dup2\n        /* \"#utility.yul\":1148:1181   */\n      tag_56\n      jump\t// in\n    tag_85:\n        /* \"#utility.yul\":1048:1187   */\n      swap3\n      swap2\n      pop\n      pop\n      jump\t// out\n        /* \"#utility.yul\":1193:1522   */\n    tag_15:\n        /* \"#utility.yul\":1252:1258   */\n      0x00\n        /* \"#utility.yul\":1301:1303   */\n      0x20\n        /* \"#utility.yul\":1289:1298   */\n      dup3\n        /* \"#utility.yul\":1280:1287   */\n      dup5\n        /* \"#utility.yul\":1276:1299   */\n      sub\n        /* \"#utility.yul\":1272:1304   */\n      slt\n        /* \"#utility.yul\":1269:1388   */\n      iszero\n      tag_87\n      jumpi\n        /* \"#utility.yul\":1307:1386   */\n      tag_88\n      tag_54\n      jump\t// in\n    tag_88:\n        /* \"#utility.yul\":1269:1388   */\n    tag_87:\n        /* \"#utility.yul\":1427:1428   */\n      0x00\n        /* \"#utility.yul\":1452:1505   */\n      tag_89\n        /* \"#utility.yul\":1497:1504   */\n      dup5\n        /* \"#utility.yul\":1488:1494   */\n      dup3\n        /* \"#utility.yul\":1477:1486   */\n      dup6\n        /* \"#utility.yul\":1473:1495   */\n      add\n        /* \"#utility.yul\":1452:1505   */\n      tag_57\n      jump\t// in\n    tag_89:\n        /* \"#utility.yul\":1442:1505   */\n      swap2\n      pop\n        /* \"#utility.yul\":1398:1515   */\n      pop\n        /* \"#utility.yul\":1193:1522   */\n      swap3\n      swap2\n      pop\n      pop\n      jump\t// out\n        /* \"#utility.yul\":1528:1605   */\n    tag_58:\n        /* \"#utility.yul\":1565:1572   */\n      0x00\n        /* \"#utility.yul\":1594:1599   */\n      dup2\n        /* \"#utility.yul\":1583:1599   */\n      swap1\n      pop\n        /* \"#utility.yul\":1528:1605   */\n      swap2\n      swap1\n      pop\n      jump\t// out\n        /* \"#utility.yul\":1611:1729   */\n    tag_59:\n        /* \"#utility.yul\":1698:1722   */\n      tag_92\n        /* \"#utility.yul\":1716:1721   */\n      dup2\n        /* \"#utility.yul\":1698:1722   */\n      tag_58\n      jump\t// in\n    tag_92:\n        /* \"#utility.yul\":1693:1696   */\n      dup3\n        /* \"#utility.yul\":1686:1723   */\n      mstore\n        /* \"#utility.yul\":1611:1729   */\n      pop\n      pop\n      jump\t// out\n        /* \"#utility.yul\":1735:1957   */\n    tag_18:\n        /* \"#utility.yul\":1828:1832   */\n      0x00\n        /* \"#utility.yul\":1866:1868   */\n      0x20\n        /* \"#utility.yul\":1855:1864   */\n      dup3\n        /* \"#utility.yul\":1851:1869   */\n      add\n        /* \"#utility.yul\":1843:1869   */\n      swap1\n      pop\n        /* \"#utility.yul\":1879:1950   */\n      tag_94\n        /* \"#utility.yul\":1947:1948   */\n      0x00\n        /* \"#utility.yul\":1936:1945   */\n      dup4\n        /* \"#utility.yul\":1932:1949   */\n      add\n        /* \"#utility.yul\":1923:1929   */\n      dup5\n        /* \"#utility.yul\":1879:1950   */\n      tag_59\n      jump\t// in\n    tag_94:\n        /* \"#utility.yul\":1735:1957   */\n      swap3\n      swap2\n      pop\n      pop\n      jump\t// out\n        /* \"#utility.yul\":1963:2085   */\n    tag_60:\n        /* \"#utility.yul\":2036:2060   */\n      tag_96\n        /* \"#utility.yul\":2054:2059   */\n      dup2\n        /* \"#utility.yul\":2036:2060   */\n      tag_58\n      jump\t// in\n    tag_96:\n        /* \"#utility.yul\":2029:2034   */\n      dup2\n        /* \"#utility.yul\":2026:2061   */\n      eq\n        /* \"#utility.yul\":2016:2079   */\n      tag_97\n      jumpi\n        /* \"#utility.yul\":2075:2076   */\n      0x00\n        /* \"#utility.yul\":2072:2073   */\n      dup1\n        /* \"#utility.yul\":2065:2077   */\n      revert\n        /* \"#utility.yul\":2016:2079   */\n    tag_97:\n        /* \"#utility.yul\":1963:2085   */\n      pop\n      jump\t// out\n        /* \"#utility.yul\":2091:2230   */\n    tag_61:\n        /* \"#utility.yul\":2137:2142   */\n      0x00\n        /* \"#utility.yul\":2175:2181   */\n      dup2\n        /* \"#utility.yul\":2162:2182   */\n      calldataload\n        /* \"#utility.yul\":2153:2182   */\n      swap1\n      pop\n        /* \"#utility.yul\":2191:2224   */\n      tag_99\n        /* \"#utility.yul\":2218:2223   */\n      dup2\n        /* \"#utility.yul\":2191:2224   */\n      tag_60\n      jump\t// in\n    tag_99:\n        /* \"#utility.yul\":2091:2230   */\n      swap3\n      swap2\n      pop\n      pop\n      jump\t// out\n        /* \"#utility.yul\":2236:2565   */\n    tag_22:\n        /* \"#utility.yul\":2295:2301   */\n      0x00\n        /* \"#utility.yul\":2344:2346   */\n      0x20\n        /* \"#utility.yul\":2332:2341   */\n      dup3\n        /* \"#utility.yul\":2323:2330   */\n      dup5\n        /* \"#utility.yul\":2319:2342   */\n      sub\n        /* \"#utility.yul\":2315:2347   */\n      slt\n        /* \"#utility.yul\":2312:2431   */\n      iszero\n      tag_101\n      jumpi\n        /* \"#utility.yul\":2350:2429   */\n      tag_102\n      tag_54\n      jump\t// in\n    tag_102:\n        /* \"#utility.yul\":2312:2431   */\n    tag_101:\n        /* \"#utility.yul\":2470:2471   */\n      0x00\n        /* \"#utility.yul\":2495:2548   */\n      tag_103\n        /* \"#utility.yul\":2540:2547   */\n      dup5\n        /* \"#utility.yul\":2531:2537   */\n      dup3\n        /* \"#utility.yul\":2520:2529   */\n      dup6\n        /* \"#utility.yul\":2516:2538   */\n      add\n        /* \"#utility.yul\":2495:2548   */\n      tag_61\n      jump\t// in\n    tag_103:\n        /* \"#utility.yul\":2485:2548   */\n      swap2\n      pop\n        /* \"#utility.yul\":2441:2558   */\n      pop\n        /* \"#utility.yul\":2236:2565   */\n      swap3\n      swap2\n      pop\n      pop\n      jump\t// out\n        /* \"#utility.yul\":2571:2740   */\n    tag_62:\n        /* \"#utility.yul\":2655:2666   */\n      0x00\n        /* \"#utility.yul\":2689:2695   */\n      dup3\n        /* \"#utility.yul\":2684:2687   */\n      dup3\n        /* \"#utility.yul\":2677:2696   */\n      mstore\n        /* \"#utility.yul\":2729:2733   */\n      0x20\n        /* \"#utility.yul\":2724:2727   */\n      dup3\n        /* \"#utility.yul\":2720:2734   */\n      add\n        /* \"#utility.yul\":2705:2734   */\n      swap1\n      pop\n        /* \"#utility.yul\":2571:2740   */\n      swap3\n      swap2\n      pop\n      pop\n      jump\t// out\n        /* \"#utility.yul\":2746:2972   */\n    tag_63:\n        /* \"#utility.yul\":2886:2920   */\n      0x4f6e6c7920746865206f776e65722063616e20726573746f636b207468697320\n        /* \"#utility.yul\":2882:2883   */\n      0x00\n        /* \"#utility.yul\":2874:2880   */\n      dup3\n        /* \"#utility.yul\":2870:2884   */\n      add\n        /* \"#utility.yul\":2863:2921   */\n      mstore\n        /* \"#utility.yul\":2955:2964   */\n      0x4d616368696e6500000000000000000000000000000000000000000000000000\n        /* \"#utility.yul\":2950:2952   */\n      0x20\n        /* \"#utility.yul\":2942:2948   */\n      dup3\n        /* \"#utility.yul\":2938:2953   */\n      add\n        /* \"#utility.yul\":2931:2965   */\n      mstore\n        /* \"#utility.yul\":2746:2972   */\n      pop\n      jump\t// out\n        /* \"#utility.yul\":2978:3344   */\n    tag_64:\n        /* \"#utility.yul\":3120:3123   */\n      0x00\n        /* \"#utility.yul\":3141:3208   */\n      tag_107\n        /* \"#utility.yul\":3205:3207   */\n      0x27\n        /* \"#utility.yul\":3200:3203   */\n      dup4\n        /* \"#utility.yul\":3141:3208   */\n      tag_62\n      jump\t// in\n    tag_107:\n        /* \"#utility.yul\":3134:3208   */\n      swap2\n      pop\n        /* \"#utility.yul\":3217:3310   */\n      tag_108\n        /* \"#utility.yul\":3306:3309   */\n      dup3\n        /* \"#utility.yul\":3217:3310   */\n      tag_63\n      jump\t// in\n    tag_108:\n        /* \"#utility.yul\":3335:3337   */\n      0x40\n        /* \"#utility.yul\":3330:3333   */\n      dup3\n        /* \"#utility.yul\":3326:3338   */\n      add\n        /* \"#utility.yul\":3319:3338   */\n      swap1\n      pop\n        /* \"#utility.yul\":2978:3344   */\n      swap2\n      swap1\n      pop\n      jump\t// out\n        /* \"#utility.yul\":3350:3769   */\n    tag_34:\n        /* \"#utility.yul\":3516:3520   */\n      0x00\n        /* \"#utility.yul\":3554:3556   */\n      0x20\n        /* \"#utility.yul\":3543:3552   */\n      dup3\n        /* \"#utility.yul\":3539:3557   */\n      add\n        /* \"#utility.yul\":3531:3557   */\n      swap1\n      pop\n        /* \"#utility.yul\":3603:3612   */\n      dup2\n        /* \"#utility.yul\":3597:3601   */\n      dup2\n        /* \"#utility.yul\":3593:3613   */\n      sub\n        /* \"#utility.yul\":3589:3590   */\n      0x00\n        /* \"#utility.yul\":3578:3587   */\n      dup4\n        /* \"#utility.yul\":3574:3591   */\n      add\n        /* \"#utility.yul\":3567:3614   */\n      mstore\n        /* \"#utility.yul\":3631:3762   */\n      tag_110\n        /* \"#utility.yul\":3757:3761   */\n      dup2\n        /* \"#utility.yul\":3631:3762   */\n      tag_64\n      jump\t// in\n    tag_110:\n        /* \"#utility.yul\":3623:3762   */\n      swap1\n      pop\n        /* \"#utility.yul\":3350:3769   */\n      swap2\n      swap1\n      pop\n      jump\t// out\n        /* \"#utility.yul\":3775:3955   */\n    tag_65:\n        /* \"#utility.yul\":3823:3900   */\n      0x4e487b7100000000000000000000000000000000000000000000000000000000\n        /* \"#utility.yul\":3820:3821   */\n      0x00\n        /* \"#utility.yul\":3813:3901   */\n      mstore\n        /* \"#utility.yul\":3920:3924   */\n      0x11\n        /* \"#utility.yul\":3917:3918   */\n      0x04\n        /* \"#utility.yul\":3910:3925   */\n      mstore\n        /* \"#utility.yul\":3944:3948   */\n      0x24\n        /* \"#utility.yul\":3941:3942   */\n      0x00\n        /* \"#utility.yul\":3934:3949   */\n      revert\n        /* \"#utility.yul\":3961:4152   */\n    tag_36:\n        /* \"#utility.yul\":4001:4004   */\n      0x00\n        /* \"#utility.yul\":4020:4040   */\n      tag_113\n        /* \"#utility.yul\":4038:4039   */\n      dup3\n        /* \"#utility.yul\":4020:4040   */\n      tag_58\n      jump\t// in\n    tag_113:\n        /* \"#utility.yul\":4015:4040   */\n      swap2\n      pop\n        /* \"#utility.yul\":4054:4074   */\n      tag_114\n        /* \"#utility.yul\":4072:4073   */\n      dup4\n        /* \"#utility.yul\":4054:4074   */\n      tag_58\n      jump\t// in\n    tag_114:\n        /* \"#utility.yul\":4049:4074   */\n      swap3\n      pop\n        /* \"#utility.yul\":4097:4098   */\n      dup3\n        /* \"#utility.yul\":4094:4095   */\n      dup3\n        /* \"#utility.yul\":4090:4099   */\n      add\n        /* \"#utility.yul\":4083:4099   */\n      swap1\n      pop\n        /* \"#utility.yul\":4118:4121   */\n      dup1\n        /* \"#utility.yul\":4115:4116   */\n      dup3\n        /* \"#utility.yul\":4112:4122   */\n      gt\n        /* \"#utility.yul\":4109:4145   */\n      iszero\n      tag_115\n      jumpi\n        /* \"#utility.yul\":4125:4143   */\n      tag_116\n      tag_65\n      jump\t// in\n    tag_116:\n        /* \"#utility.yul\":4109:4145   */\n    tag_115:\n        /* \"#utility.yul\":3961:4152   */\n      swap3\n      swap2\n      pop\n      pop\n      jump\t// out\n        /* \"#utility.yul\":4158:4568   */\n    tag_40:\n        /* \"#utility.yul\":4198:4205   */\n      0x00\n        /* \"#utility.yul\":4221:4241   */\n      tag_118\n        /* \"#utility.yul\":4239:4240   */\n      dup3\n        /* \"#utility.yul\":4221:4241   */\n      tag_58\n      jump\t// in\n    tag_118:\n        /* \"#utility.yul\":4216:4241   */\n      swap2\n      pop\n        /* \"#utility.yul\":4255:4275   */\n      tag_119\n        /* \"#utility.yul\":4273:4274   */\n      dup4\n        /* \"#utility.yul\":4255:4275   */\n      tag_58\n      jump\t// in\n    tag_119:\n        /* \"#utility.yul\":4250:4275   */\n      swap3\n      pop\n        /* \"#utility.yul\":4310:4311   */\n      dup3\n        /* \"#utility.yul\":4307:4308   */\n      dup3\n        /* \"#utility.yul\":4303:4312   */\n      mul\n        /* \"#utility.yul\":4332:4362   */\n      tag_120\n        /* \"#utility.yul\":4350:4361   */\n      dup2\n        /* \"#utility.yul\":4332:4362   */\n      tag_58\n      jump\t// in\n    tag_120:\n        /* \"#utility.yul\":4321:4362   */\n      swap2\n      pop\n        /* \"#utility.yul\":4511:4512   */\n      dup3\n        /* \"#utility.yul\":4502:4509   */\n      dup3\n        /* \"#utility.yul\":4498:4513   */\n      div\n        /* \"#utility.yul\":4495:4496   */\n      dup5\n        /* \"#utility.yul\":4492:4514   */\n      eq\n        /* \"#utility.yul\":4472:4473   */\n      dup4\n        /* \"#utility.yul\":4465:4474   */\n      iszero\n        /* \"#utility.yul\":4445:4528   */\n      or\n        /* \"#utility.yul\":4422:4561   */\n      tag_121\n      jumpi\n        /* \"#utility.yul\":4541:4559   */\n      tag_122\n      tag_65\n      jump\t// in\n    tag_122:\n        /* \"#utility.yul\":4422:4561   */\n    tag_121:\n        /* \"#utility.yul\":4206:4568   */\n      pop\n        /* \"#utility.yul\":4158:4568   */\n      swap3\n      swap2\n      pop\n      pop\n      jump\t// out\n        /* \"#utility.yul\":4574:4801   */\n    tag_66:\n        /* \"#utility.yul\":4714:4748   */\n      0x596f75206d757374207061792061746c656173742074776f2065746865722070\n        /* \"#utility.yul\":4710:4711   */\n      0x00\n        /* \"#utility.yul\":4702:4708   */\n      dup3\n        /* \"#utility.yul\":4698:4712   */\n      add\n        /* \"#utility.yul\":4691:4749   */\n      mstore\n        /* \"#utility.yul\":4783:4793   */\n      0x657220646f6e7574000000000000000000000000000000000000000000000000\n        /* \"#utility.yul\":4778:4780   */\n      0x20\n        /* \"#utility.yul\":4770:4776   */\n      dup3\n        /* \"#utility.yul\":4766:4781   */\n      add\n        /* \"#utility.yul\":4759:4794   */\n      mstore\n        /* \"#utility.yul\":4574:4801   */\n      pop\n      jump\t// out\n        /* \"#utility.yul\":4807:5173   */\n    tag_67:\n        /* \"#utility.yul\":4949:4952   */\n      0x00\n        /* \"#utility.yul\":4970:5037   */\n      tag_125\n        /* \"#utility.yul\":5034:5036   */\n      0x28\n        /* \"#utility.yul\":5029:5032   */\n      dup4\n        /* \"#utility.yul\":4970:5037   */\n      tag_62\n      jump\t// in\n    tag_125:\n        /* \"#utility.yul\":4963:5037   */\n      swap2\n      pop\n        /* \"#utility.yul\":5046:5139   */\n      tag_126\n        /* \"#utility.yul\":5135:5138   */\n      dup3\n        /* \"#utility.yul\":5046:5139   */\n      tag_66\n      jump\t// in\n    tag_126:\n        /* \"#utility.yul\":5164:5166   */\n      0x40\n        /* \"#utility.yul\":5159:5162   */\n      dup3\n        /* \"#utility.yul\":5155:5167   */\n      add\n        /* \"#utility.yul\":5148:5167   */\n      swap1\n      pop\n        /* \"#utility.yul\":4807:5173   */\n      swap2\n      swap1\n      pop\n      jump\t// out\n        /* \"#utility.yul\":5179:5598   */\n    tag_43:\n        /* \"#utility.yul\":5345:5349   */\n      0x00\n        /* \"#utility.yul\":5383:5385   */\n      0x20\n        /* \"#utility.yul\":5372:5381   */\n      dup3\n        /* \"#utility.yul\":5368:5386   */\n      add\n        /* \"#utility.yul\":5360:5386   */\n      swap1\n      pop\n        /* \"#utility.yul\":5432:5441   */\n      dup2\n        /* \"#utility.yul\":5426:5430   */\n      dup2\n        /* \"#utility.yul\":5422:5442   */\n      sub\n        /* \"#utility.yul\":5418:5419   */\n      0x00\n        /* \"#utility.yul\":5407:5416   */\n      dup4\n        /* \"#utility.yul\":5403:5420   */\n      add\n        /* \"#utility.yul\":5396:5443   */\n      mstore\n        /* \"#utility.yul\":5460:5591   */\n      tag_128\n        /* \"#utility.yul\":5586:5590   */\n      dup2\n        /* \"#utility.yul\":5460:5591   */\n      tag_67\n      jump\t// in\n    tag_128:\n        /* \"#utility.yul\":5452:5591   */\n      swap1\n      pop\n        /* \"#utility.yul\":5179:5598   */\n      swap2\n      swap1\n      pop\n      jump\t// out\n        /* \"#utility.yul\":5604:5772   */\n    tag_68:\n        /* \"#utility.yul\":5744:5764   */\n      0x4e6f7420456e6f75676820446f6e757473200000000000000000000000000000\n        /* \"#utility.yul\":5740:5741   */\n      0x00\n        /* \"#utility.yul\":5732:5738   */\n      dup3\n        /* \"#utility.yul\":5728:5742   */\n      add\n        /* \"#utility.yul\":5721:5765   */\n      mstore\n        /* \"#utility.yul\":5604:5772   */\n      pop\n      jump\t// out\n        /* \"#utility.yul\":5778:6144   */\n    tag_69:\n        /* \"#utility.yul\":5920:5923   */\n      0x00\n        /* \"#utility.yul\":5941:6008   */\n      tag_131\n        /* \"#utility.yul\":6005:6007   */\n      0x12\n        /* \"#utility.yul\":6000:6003   */\n      dup4\n        /* \"#utility.yul\":5941:6008   */\n      tag_62\n      jump\t// in\n    tag_131:\n        /* \"#utility.yul\":5934:6008   */\n      swap2\n      pop\n        /* \"#utility.yul\":6017:6110   */\n      tag_132\n        /* \"#utility.yul\":6106:6109   */\n      dup3\n        /* \"#utility.yul\":6017:6110   */\n      tag_68\n      jump\t// in\n    tag_132:\n        /* \"#utility.yul\":6135:6137   */\n      0x20\n        /* \"#utility.yul\":6130:6133   */\n      dup3\n        /* \"#utility.yul\":6126:6138   */\n      add\n        /* \"#utility.yul\":6119:6138   */\n      swap1\n      pop\n        /* \"#utility.yul\":5778:6144   */\n      swap2\n      swap1\n      pop\n      jump\t// out\n        /* \"#utility.yul\":6150:6569   */\n    tag_46:\n        /* \"#utility.yul\":6316:6320   */\n      0x00\n        /* \"#utility.yul\":6354:6356   */\n      0x20\n        /* \"#utility.yul\":6343:6352   */\n      dup3\n        /* \"#utility.yul\":6339:6357   */\n      add\n        /* \"#utility.yul\":6331:6357   */\n      swap1\n      pop\n        /* \"#utility.yul\":6403:6412   */\n      dup2\n        /* \"#utility.yul\":6397:6401   */\n      dup2\n        /* \"#utility.yul\":6393:6413   */\n      sub\n        /* \"#utility.yul\":6389:6390   */\n      0x00\n        /* \"#utility.yul\":6378:6387   */\n      dup4\n        /* \"#utility.yul\":6374:6391   */\n      add\n        /* \"#utility.yul\":6367:6414   */\n      mstore\n        /* \"#utility.yul\":6431:6562   */\n      tag_134\n        /* \"#utility.yul\":6557:6561   */\n      dup2\n        /* \"#utility.yul\":6431:6562   */\n      tag_69\n      jump\t// in\n    tag_134:\n        /* \"#utility.yul\":6423:6562   */\n      swap1\n      pop\n        /* \"#utility.yul\":6150:6569   */\n      swap2\n      swap1\n      pop\n      jump\t// out\n        /* \"#utility.yul\":6575:6769   */\n    tag_48:\n        /* \"#utility.yul\":6615:6619   */\n      0x00\n        /* \"#utility.yul\":6635:6655   */\n      tag_136\n        /* \"#utility.yul\":6653:6654   */\n      dup3\n        /* \"#utility.yul\":6635:6655   */\n      tag_58\n      jump\t// in\n    tag_136:\n        /* \"#utility.yul\":6630:6655   */\n      swap2\n      pop\n        /* \"#utility.yul\":6669:6689   */\n      tag_137\n        /* \"#utility.yul\":6687:6688   */\n      dup4\n        /* \"#utility.yul\":6669:6689   */\n      tag_58\n      jump\t// in\n    tag_137:\n        /* \"#utility.yul\":6664:6689   */\n      swap3\n      pop\n        /* \"#utility.yul\":6713:6714   */\n      dup3\n        /* \"#utility.yul\":6710:6711   */\n      dup3\n        /* \"#utility.yul\":6706:6715   */\n      sub\n        /* \"#utility.yul\":6698:6715   */\n      swap1\n      pop\n        /* \"#utility.yul\":6737:6738   */\n      dup2\n        /* \"#utility.yul\":6731:6735   */\n      dup2\n        /* \"#utility.yul\":6728:6739   */\n      gt\n        /* \"#utility.yul\":6725:6762   */\n      iszero\n      tag_138\n      jumpi\n        /* \"#utility.yul\":6742:6760   */\n      tag_139\n      tag_65\n      jump\t// in\n    tag_139:\n        /* \"#utility.yul\":6725:6762   */\n    tag_138:\n        /* \"#utility.yul\":6575:6769   */\n      swap3\n      swap2\n      pop\n      pop\n      jump\t// out\n\n    auxdata: 0xa2646970667358221220c97e375e0e11bdf2d8d8b9dc5f7679c2b2146682b934e760604234baff64842b64736f6c63430008120033\n}\n",
				"bytecode": {
					"linkReferences": {},
					"object": "608060405234801561001057600080fd5b50336000806101000a81548173ffffffffffffffffffffffffffffffffffffffff021916908373ffffffffffffffffffffffffffffffffffffffff1602179055506064600160003073ffffffffffffffffffffffffffffffffffffffff1673ffffffffffffffffffffffffffffffffffffffff1681526020019081526020016000208190555061080f806100a56000396000f3fe60806040526004361061004a5760003560e01c80638da5cb5b1461004f5780639a020d8a1461007a578063c21a702a146100b7578063e7644d34146100e0578063efef39a11461010b575b600080fd5b34801561005b57600080fd5b50610064610127565b6040516100719190610459565b60405180910390f35b34801561008657600080fd5b506100a1600480360381019061009c91906104a5565b61014b565b6040516100ae91906104eb565b60405180910390f35b3480156100c357600080fd5b506100de60048036038101906100d99190610532565b610163565b005b3480156100ec57600080fd5b506100f561024a565b60405161010291906104eb565b60405180910390f35b61012560048036038101906101209190610532565b610291565b005b60008054906101000a900473ffffffffffffffffffffffffffffffffffffffff1681565b60016020528060005260406000206000915090505481565b60008054906101000a900473ffffffffffffffffffffffffffffffffffffffff1673ffffffffffffffffffffffffffffffffffffffff163373ffffffffffffffffffffffffffffffffffffffff16146101f1576040517f08c379a00000000000000000000000000000000000000000000000000000000081526004016101e8906105e2565b60405180910390fd5b80600160003073ffffffffffffffffffffffffffffffffffffffff1673ffffffffffffffffffffffffffffffffffffffff16815260200190815260200160002060008282546102409190610631565b9250508190555050565b6000600160003073ffffffffffffffffffffffffffffffffffffffff1673ffffffffffffffffffffffffffffffffffffffff16815260200190815260200160002054905090565b671bc16d674ec80000816102a59190610665565b3410156102e7576040517f08c379a00000000000000000000000000000000000000000000000000000000081526004016102de90610719565b60405180910390fd5b80600160003073ffffffffffffffffffffffffffffffffffffffff1673ffffffffffffffffffffffffffffffffffffffff168152602001908152602001600020541015610369576040517f08c379a000000000000000000000000000000000000000000000000000000000815260040161036090610785565b60405180910390fd5b80600160003073ffffffffffffffffffffffffffffffffffffffff1673ffffffffffffffffffffffffffffffffffffffff16815260200190815260200160002060008282546103b891906107a5565b9250508190555080600160003373ffffffffffffffffffffffffffffffffffffffff1673ffffffffffffffffffffffffffffffffffffffff168152602001908152602001600020600082825461040e9190610631565b9250508190555050565b600073ffffffffffffffffffffffffffffffffffffffff82169050919050565b600061044382610418565b9050919050565b61045381610438565b82525050565b600060208201905061046e600083018461044a565b92915050565b600080fd5b61048281610438565b811461048d57600080fd5b50565b60008135905061049f81610479565b92915050565b6000602082840312156104bb576104ba610474565b5b60006104c984828501610490565b91505092915050565b6000819050919050565b6104e5816104d2565b82525050565b600060208201905061050060008301846104dc565b92915050565b61050f816104d2565b811461051a57600080fd5b50565b60008135905061052c81610506565b92915050565b60006020828403121561054857610547610474565b5b60006105568482850161051d565b91505092915050565b600082825260208201905092915050565b7f4f6e6c7920746865206f776e65722063616e20726573746f636b20746869732060008201527f4d616368696e6500000000000000000000000000000000000000000000000000602082015250565b60006105cc60278361055f565b91506105d782610570565b604082019050919050565b600060208201905081810360008301526105fb816105bf565b9050919050565b7f4e487b7100000000000000000000000000000000000000000000000000000000600052601160045260246000fd5b600061063c826104d2565b9150610647836104d2565b925082820190508082111561065f5761065e610602565b5b92915050565b6000610670826104d2565b915061067b836104d2565b9250828202610689816104d2565b915082820484148315176106a05761069f610602565b5b5092915050565b7f596f75206d757374207061792061746c656173742074776f206574686572207060008201527f657220646f6e7574000000000000000000000000000000000000000000000000602082015250565b600061070360288361055f565b915061070e826106a7565b604082019050919050565b60006020820190508181036000830152610732816106f6565b9050919050565b7f4e6f7420456e6f75676820446f6e757473200000000000000000000000000000600082015250565b600061076f60128361055f565b915061077a82610739565b602082019050919050565b6000602082019050818103600083015261079e81610762565b9050919050565b60006107b0826104d2565b91506107bb836104d2565b92508282039050818111156107d3576107d2610602565b5b9291505056fea2646970667358221220c97e375e0e11bdf2d8d8b9dc5f7679c2b2146682b934e760604234baff64842b64736f6c63430008120033",
					"opcodes": "PUSH1 0x80 PUSH1 0x40 MSTORE CALLVALUE DUP1 ISZERO PUSH2 0x10 JUMPI PUSH1 0x0 DUP1 REVERT JUMPDEST POP CALLER PUSH1 0x0 DUP1 PUSH2 0x100 EXP DUP2 SLOAD DUP2 PUSH20 0xFFFFFFFFFFFFFFFFFFFFFFFFFFFFFFFFFFFFFFFF MUL NOT AND SWAP1 DUP4 PUSH20 0xFFFFFFFFFFFFFFFFFFFFFFFFFFFFFFFFFFFFFFFF AND MUL OR SWAP1 SSTORE POP PUSH1 0x64 PUSH1 0x1 PUSH1 0x0 ADDRESS PUSH20 0xFFFFFFFFFFFFFFFFFFFFFFFFFFFFFFFFFFFFFFFF AND PUSH20 0xFFFFFFFFFFFFFFFFFFFFFFFFFFFFFFFFFFFFFFFF AND DUP2 MSTORE PUSH1 0x20 ADD SWAP1 DUP2 MSTORE PUSH1 0x20 ADD PUSH1 0x0 KECCAK256 DUP2 SWAP1 SSTORE POP PUSH2 0x80F DUP1 PUSH2 0xA5 PUSH1 0x0 CODECOPY PUSH1 0x0 RETURN INVALID PUSH1 0x80 PUSH1 0x40 MSTORE PUSH1 0x4 CALLDATASIZE LT PUSH2 0x4A JUMPI PUSH1 0x0 CALLDATALOAD PUSH1 0xE0 SHR DUP1 PUSH4 0x8DA5CB5B EQ PUSH2 0x4F JUMPI DUP1 PUSH4 0x9A020D8A EQ PUSH2 0x7A JUMPI DUP1 PUSH4 0xC21A702A EQ PUSH2 0xB7 JUMPI DUP1 PUSH4 0xE7644D34 EQ PUSH2 0xE0 JUMPI DUP1 PUSH4 0xEFEF39A1 EQ PUSH2 0x10B JUMPI JUMPDEST PUSH1 0x0 DUP1 REVERT JUMPDEST CALLVALUE DUP1 ISZERO PUSH2 0x5B JUMPI PUSH1 0x0 DUP1 REVERT JUMPDEST POP PUSH2 0x64 PUSH2 0x127 JUMP JUMPDEST PUSH1 0x40 MLOAD PUSH2 0x71 SWAP2 SWAP1 PUSH2 0x459 JUMP JUMPDEST PUSH1 0x40 MLOAD DUP1 SWAP2 SUB SWAP1 RETURN JUMPDEST CALLVALUE DUP1 ISZERO PUSH2 0x86 JUMPI PUSH1 0x0 DUP1 REVERT JUMPDEST POP PUSH2 0xA1 PUSH1 0x4 DUP1 CALLDATASIZE SUB DUP2 ADD SWAP1 PUSH2 0x9C SWAP2 SWAP1 PUSH2 0x4A5 JUMP JUMPDEST PUSH2 0x14B JUMP JUMPDEST PUSH1 0x40 MLOAD PUSH2 0xAE SWAP2 SWAP1 PUSH2 0x4EB JUMP JUMPDEST PUSH1 0x40 MLOAD DUP1 SWAP2 SUB SWAP1 RETURN JUMPDEST CALLVALUE DUP1 ISZERO PUSH2 0xC3 JUMPI PUSH1 0x0 DUP1 REVERT JUMPDEST POP PUSH2 0xDE PUSH1 0x4 DUP1 CALLDATASIZE SUB DUP2 ADD SWAP1 PUSH2 0xD9 SWAP2 SWAP1 PUSH2 0x532 JUMP JUMPDEST PUSH2 0x163 JUMP JUMPDEST STOP JUMPDEST CALLVALUE DUP1 ISZERO PUSH2 0xEC JUMPI PUSH1 0x0 DUP1 REVERT JUMPDEST POP PUSH2 0xF5 PUSH2 0x24A JUMP JUMPDEST PUSH1 0x40 MLOAD PUSH2 0x102 SWAP2 SWAP1 PUSH2 0x4EB JUMP JUMPDEST PUSH1 0x40 MLOAD DUP1 SWAP2 SUB SWAP1 RETURN JUMPDEST PUSH2 0x125 PUSH1 0x4 DUP1 CALLDATASIZE SUB DUP2 ADD SWAP1 PUSH2 0x120 SWAP2 SWAP1 PUSH2 0x532 JUMP JUMPDEST PUSH2 0x291 JUMP JUMPDEST STOP JUMPDEST PUSH1 0x0 DUP1 SLOAD SWAP1 PUSH2 0x100 EXP SWAP1 DIV PUSH20 0xFFFFFFFFFFFFFFFFFFFFFFFFFFFFFFFFFFFFFFFF AND DUP2 JUMP JUMPDEST PUSH1 0x1 PUSH1 0x20 MSTORE DUP1 PUSH1 0x0 MSTORE PUSH1 0x40 PUSH1 0x0 KECCAK256 PUSH1 0x0 SWAP2 POP SWAP1 POP SLOAD DUP2 JUMP JUMPDEST PUSH1 0x0 DUP1 SLOAD SWAP1 PUSH2 0x100 EXP SWAP1 DIV PUSH20 0xFFFFFFFFFFFFFFFFFFFFFFFFFFFFFFFFFFFFFFFF AND PUSH20 0xFFFFFFFFFFFFFFFFFFFFFFFFFFFFFFFFFFFFFFFF AND CALLER PUSH20 0xFFFFFFFFFFFFFFFFFFFFFFFFFFFFFFFFFFFFFFFF AND EQ PUSH2 0x1F1 JUMPI PUSH1 0x40 MLOAD PUSH32 0x8C379A000000000000000000000000000000000000000000000000000000000 DUP2 MSTORE PUSH1 0x4 ADD PUSH2 0x1E8 SWAP1 PUSH2 0x5E2 JUMP JUMPDEST PUSH1 0x40 MLOAD DUP1 SWAP2 SUB SWAP1 REVERT JUMPDEST DUP1 PUSH1 0x1 PUSH1 0x0 ADDRESS PUSH20 0xFFFFFFFFFFFFFFFFFFFFFFFFFFFFFFFFFFFFFFFF AND PUSH20 0xFFFFFFFFFFFFFFFFFFFFFFFFFFFFFFFFFFFFFFFF AND DUP2 MSTORE PUSH1 0x20 ADD SWAP1 DUP2 MSTORE PUSH1 0x20 ADD PUSH1 0x0 KECCAK256 PUSH1 0x0 DUP3 DUP3 SLOAD PUSH2 0x240 SWAP2 SWAP1 PUSH2 0x631 JUMP JUMPDEST SWAP3 POP POP DUP2 SWAP1 SSTORE POP POP JUMP JUMPDEST PUSH1 0x0 PUSH1 0x1 PUSH1 0x0 ADDRESS PUSH20 0xFFFFFFFFFFFFFFFFFFFFFFFFFFFFFFFFFFFFFFFF AND PUSH20 0xFFFFFFFFFFFFFFFFFFFFFFFFFFFFFFFFFFFFFFFF AND DUP2 MSTORE PUSH1 0x20 ADD SWAP1 DUP2 MSTORE PUSH1 0x20 ADD PUSH1 0x0 KECCAK256 SLOAD SWAP1 POP SWAP1 JUMP JUMPDEST PUSH8 0x1BC16D674EC80000 DUP2 PUSH2 0x2A5 SWAP2 SWAP1 PUSH2 0x665 JUMP JUMPDEST CALLVALUE LT ISZERO PUSH2 0x2E7 JUMPI PUSH1 0x40 MLOAD PUSH32 0x8C379A000000000000000000000000000000000000000000000000000000000 DUP2 MSTORE PUSH1 0x4 ADD PUSH2 0x2DE SWAP1 PUSH2 0x719 JUMP JUMPDEST PUSH1 0x40 MLOAD DUP1 SWAP2 SUB SWAP1 REVERT JUMPDEST DUP1 PUSH1 0x1 PUSH1 0x0 ADDRESS PUSH20 0xFFFFFFFFFFFFFFFFFFFFFFFFFFFFFFFFFFFFFFFF AND PUSH20 0xFFFFFFFFFFFFFFFFFFFFFFFFFFFFFFFFFFFFFFFF AND DUP2 MSTORE PUSH1 0x20 ADD SWAP1 DUP2 MSTORE PUSH1 0x20 ADD PUSH1 0x0 KECCAK256 SLOAD LT ISZERO PUSH2 0x369 JUMPI PUSH1 0x40 MLOAD PUSH32 0x8C379A000000000000000000000000000000000000000000000000000000000 DUP2 MSTORE PUSH1 0x4 ADD PUSH2 0x360 SWAP1 PUSH2 0x785 JUMP JUMPDEST PUSH1 0x40 MLOAD DUP1 SWAP2 SUB SWAP1 REVERT JUMPDEST DUP1 PUSH1 0x1 PUSH1 0x0 ADDRESS PUSH20 0xFFFFFFFFFFFFFFFFFFFFFFFFFFFFFFFFFFFFFFFF AND PUSH20 0xFFFFFFFFFFFFFFFFFFFFFFFFFFFFFFFFFFFFFFFF AND DUP2 MSTORE PUSH1 0x20 ADD SWAP1 DUP2 MSTORE PUSH1 0x20 ADD PUSH1 0x0 KECCAK256 PUSH1 0x0 DUP3 DUP3 SLOAD PUSH2 0x3B8 SWAP2 SWAP1 PUSH2 0x7A5 JUMP JUMPDEST SWAP3 POP POP DUP2 SWAP1 SSTORE POP DUP1 PUSH1 0x1 PUSH1 0x0 CALLER PUSH20 0xFFFFFFFFFFFFFFFFFFFFFFFFFFFFFFFFFFFFFFFF AND PUSH20 0xFFFFFFFFFFFFFFFFFFFFFFFFFFFFFFFFFFFFFFFF AND DUP2 MSTORE PUSH1 0x20 ADD SWAP1 DUP2 MSTORE PUSH1 0x20 ADD PUSH1 0x0 KECCAK256 PUSH1 0x0 DUP3 DUP3 SLOAD PUSH2 0x40E SWAP2 SWAP1 PUSH2 0x631 JUMP JUMPDEST SWAP3 POP POP DUP2 SWAP1 SSTORE POP POP JUMP JUMPDEST PUSH1 0x0 PUSH20 0xFFFFFFFFFFFFFFFFFFFFFFFFFFFFFFFFFFFFFFFF DUP3 AND SWAP1 POP SWAP2 SWAP1 POP JUMP JUMPDEST PUSH1 0x0 PUSH2 0x443 DUP3 PUSH2 0x418 JUMP JUMPDEST SWAP1 POP SWAP2 SWAP1 POP JUMP JUMPDEST PUSH2 0x453 DUP2 PUSH2 0x438 JUMP JUMPDEST DUP3 MSTORE POP POP JUMP JUMPDEST PUSH1 0x0 PUSH1 0x20 DUP3 ADD SWAP1 POP PUSH2 0x46E PUSH1 0x0 DUP4 ADD DUP5 PUSH2 0x44A JUMP JUMPDEST SWAP3 SWAP2 POP POP JUMP JUMPDEST PUSH1 0x0 DUP1 REVERT JUMPDEST PUSH2 0x482 DUP2 PUSH2 0x438 JUMP JUMPDEST DUP2 EQ PUSH2 0x48D JUMPI PUSH1 0x0 DUP1 REVERT JUMPDEST POP JUMP JUMPDEST PUSH1 0x0 DUP2 CALLDATALOAD SWAP1 POP PUSH2 0x49F DUP2 PUSH2 0x479 JUMP JUMPDEST SWAP3 SWAP2 POP POP JUMP JUMPDEST PUSH1 0x0 PUSH1 0x20 DUP3 DUP5 SUB SLT ISZERO PUSH2 0x4BB JUMPI PUSH2 0x4BA PUSH2 0x474 JUMP JUMPDEST JUMPDEST PUSH1 0x0 PUSH2 0x4C9 DUP5 DUP3 DUP6 ADD PUSH2 0x490 JUMP JUMPDEST SWAP2 POP POP SWAP3 SWAP2 POP POP JUMP JUMPDEST PUSH1 0x0 DUP2 SWAP1 POP SWAP2 SWAP1 POP JUMP JUMPDEST PUSH2 0x4E5 DUP2 PUSH2 0x4D2 JUMP JUMPDEST DUP3 MSTORE POP POP JUMP JUMPDEST PUSH1 0x0 PUSH1 0x20 DUP3 ADD SWAP1 POP PUSH2 0x500 PUSH1 0x0 DUP4 ADD DUP5 PUSH2 0x4DC JUMP JUMPDEST SWAP3 SWAP2 POP POP JUMP JUMPDEST PUSH2 0x50F DUP2 PUSH2 0x4D2 JUMP JUMPDEST DUP2 EQ PUSH2 0x51A JUMPI PUSH1 0x0 DUP1 REVERT JUMPDEST POP JUMP JUMPDEST PUSH1 0x0 DUP2 CALLDATALOAD SWAP1 POP PUSH2 0x52C DUP2 PUSH2 0x506 JUMP JUMPDEST SWAP3 SWAP2 POP POP JUMP JUMPDEST PUSH1 0x0 PUSH1 0x20 DUP3 DUP5 SUB SLT ISZERO PUSH2 0x548 JUMPI PUSH2 0x547 PUSH2 0x474 JUMP JUMPDEST JUMPDEST PUSH1 0x0 PUSH2 0x556 DUP5 DUP3 DUP6 ADD PUSH2 0x51D JUMP JUMPDEST SWAP2 POP POP SWAP3 SWAP2 POP POP JUMP JUMPDEST PUSH1 0x0 DUP3 DUP3 MSTORE PUSH1 0x20 DUP3 ADD SWAP1 POP SWAP3 SWAP2 POP POP JUMP JUMPDEST PUSH32 0x4F6E6C7920746865206F776E65722063616E20726573746F636B207468697320 PUSH1 0x0 DUP3 ADD MSTORE PUSH32 0x4D616368696E6500000000000000000000000000000000000000000000000000 PUSH1 0x20 DUP3 ADD MSTORE POP JUMP JUMPDEST PUSH1 0x0 PUSH2 0x5CC PUSH1 0x27 DUP4 PUSH2 0x55F JUMP JUMPDEST SWAP2 POP PUSH2 0x5D7 DUP3 PUSH2 0x570 JUMP JUMPDEST PUSH1 0x40 DUP3 ADD SWAP1 POP SWAP2 SWAP1 POP JUMP JUMPDEST PUSH1 0x0 PUSH1 0x20 DUP3 ADD SWAP1 POP DUP2 DUP2 SUB PUSH1 0x0 DUP4 ADD MSTORE PUSH2 0x5FB DUP2 PUSH2 0x5BF JUMP JUMPDEST SWAP1 POP SWAP2 SWAP1 POP JUMP JUMPDEST PUSH32 0x4E487B7100000000000000000000000000000000000000000000000000000000 PUSH1 0x0 MSTORE PUSH1 0x11 PUSH1 0x4 MSTORE PUSH1 0x24 PUSH1 0x0 REVERT JUMPDEST PUSH1 0x0 PUSH2 0x63C DUP3 PUSH2 0x4D2 JUMP JUMPDEST SWAP2 POP PUSH2 0x647 DUP4 PUSH2 0x4D2 JUMP JUMPDEST SWAP3 POP DUP3 DUP3 ADD SWAP1 POP DUP1 DUP3 GT ISZERO PUSH2 0x65F JUMPI PUSH2 0x65E PUSH2 0x602 JUMP JUMPDEST JUMPDEST SWAP3 SWAP2 POP POP JUMP JUMPDEST PUSH1 0x0 PUSH2 0x670 DUP3 PUSH2 0x4D2 JUMP JUMPDEST SWAP2 POP PUSH2 0x67B DUP4 PUSH2 0x4D2 JUMP JUMPDEST SWAP3 POP DUP3 DUP3 MUL PUSH2 0x689 DUP2 PUSH2 0x4D2 JUMP JUMPDEST SWAP2 POP DUP3 DUP3 DIV DUP5 EQ DUP4 ISZERO OR PUSH2 0x6A0 JUMPI PUSH2 0x69F PUSH2 0x602 JUMP JUMPDEST JUMPDEST POP SWAP3 SWAP2 POP POP JUMP JUMPDEST PUSH32 0x596F75206D757374207061792061746C656173742074776F2065746865722070 PUSH1 0x0 DUP3 ADD MSTORE PUSH32 0x657220646F6E7574000000000000000000000000000000000000000000000000 PUSH1 0x20 DUP3 ADD MSTORE POP JUMP JUMPDEST PUSH1 0x0 PUSH2 0x703 PUSH1 0x28 DUP4 PUSH2 0x55F JUMP JUMPDEST SWAP2 POP PUSH2 0x70E DUP3 PUSH2 0x6A7 JUMP JUMPDEST PUSH1 0x40 DUP3 ADD SWAP1 POP SWAP2 SWAP1 POP JUMP JUMPDEST PUSH1 0x0 PUSH1 0x20 DUP3 ADD SWAP1 POP DUP2 DUP2 SUB PUSH1 0x0 DUP4 ADD MSTORE PUSH2 0x732 DUP2 PUSH2 0x6F6 JUMP JUMPDEST SWAP1 POP SWAP2 SWAP1 POP JUMP JUMPDEST PUSH32 0x4E6F7420456E6F75676820446F6E757473200000000000000000000000000000 PUSH1 0x0 DUP3 ADD MSTORE POP JUMP JUMPDEST PUSH1 0x0 PUSH2 0x76F PUSH1 0x12 DUP4 PUSH2 0x55F JUMP JUMPDEST SWAP2 POP PUSH2 0x77A DUP3 PUSH2 0x739 JUMP JUMPDEST PUSH1 0x20 DUP3 ADD SWAP1 POP SWAP2 SWAP1 POP JUMP JUMPDEST PUSH1 0x0 PUSH1 0x20 DUP3 ADD SWAP1 POP DUP2 DUP2 SUB PUSH1 0x0 DUP4 ADD MSTORE PUSH2 0x79E DUP2 PUSH2 0x762 JUMP JUMPDEST SWAP1 POP SWAP2 SWAP1 POP JUMP JUMPDEST PUSH1 0x0 PUSH2 0x7B0 DUP3 PUSH2 0x4D2 JUMP JUMPDEST SWAP2 POP PUSH2 0x7BB DUP4 PUSH2 0x4D2 JUMP JUMPDEST SWAP3 POP DUP3 DUP3 SUB SWAP1 POP DUP2 DUP2 GT ISZERO PUSH2 0x7D3 JUMPI PUSH2 0x7D2 PUSH2 0x602 JUMP JUMPDEST JUMPDEST SWAP3 SWAP2 POP POP JUMP INVALID LOG2 PUSH5 0x6970667358 0x22 SLT KECCAK256 0xC9 PUSH31 0x375E0E11BDF2D8D8B9DC5F7679C2B2146682B934E760604234BAFF64842B64 PUSH20 0x6F6C634300081200330000000000000000000000 "
				},
				"gasEstimates": {
					"creation": {
						"codeDepositCost": "412600",
						"executionCost": "46918",
						"totalCost": "459518"
					},
					"external": {
						"donutBalances(address)": "2814",
						"getVendingMachineBalance()": "2570",
						"owner()": "2489",
						"purchase(uint256)": "infinite",
						"restock(uint256)": "infinite"
					}
				},
				"methodIdentifiers": {
					"donutBalances(address)": "9a020d8a",
					"getVendingMachineBalance()": "e7644d34",
					"owner()": "8da5cb5b",
					"purchase(uint256)": "efef39a1",
					"restock(uint256)": "c21a702a"
				}
			},
			"storageLayout": {
				"storage": [
					{
						"astId": 3,
						"contract": "Vending_Machine/Vending_Machine.sol:VendingMachine",
						"label": "owner",
						"offset": 0,
						"slot": "0",
						"type": "t_address"
					},
					{
						"astId": 7,
						"contract": "Vending_Machine/Vending_Machine.sol:VendingMachine",
						"label": "donutBalances",
						"offset": 0,
						"slot": "1",
						"type": "t_mapping(t_address,t_uint256)"
					}
				],
				"types": {
					"t_address": {
						"encoding": "inplace",
						"label": "address",
						"numberOfBytes": "20"
					},
					"t_mapping(t_address,t_uint256)": {
						"encoding": "mapping",
						"key": "t_address",
						"label": "mapping(address => uint256)",
						"numberOfBytes": "32",
						"value": "t_uint256"
					},
					"t_uint256": {
						"encoding": "inplace",
						"label": "uint256",
						"numberOfBytes": "32"
					}
				}
			},
			"userdoc": {
				"kind": "user",
				"methods": {},
				"version": 1
			}
		}
	}
}