{
	"data": {
		"bytecode": {
			"linkReferences": {},
			"object": "608060405234801561000f575f80fd5b50610c0d8061001d5f395ff3fe60806040526004361061003e575f3560e01c80636a7e9212146100425780639d36ab6c1461006a578063c1ae85fe14610086578063f7b10808146100c2575b5f80fd5b34801561004d575f80fd5b5061006860048036038101906100639190610640565b610102565b005b610084600480360381019061007f91906106c0565b610213565b005b348015610091575f80fd5b506100ac60048036038101906100a791906106c0565b6103be565b6040516100b991906106fa565b60405180910390f35b3480156100cd575f80fd5b506100e860048036038101906100e391906106c0565b6103de565b6040516100f99594939291906107e6565b60405180910390f35b5f6040518060a001604052803373ffffffffffffffffffffffffffffffffffffffff168152602001858152602001848152602001838152602001600115158152509050805f808781526020019081526020015f205f820151815f015f6101000a81548173ffffffffffffffffffffffffffffffffffffffff021916908373ffffffffffffffffffffffffffffffffffffffff16021790555060208201518160010190816101af9190610a38565b5060408201518160020155606082015181600301556080820151816004015f6101000a81548160ff021916908315150217905550905050600185908060018154018082558091505060019003905f5260205f20015f90919091909150555050505050565b5f805f8381526020019081526020015f209050806004015f9054906101000a900460ff16610276576040517f08c379a000000000000000000000000000000000000000000000000000000000815260040161026d90610b51565b60405180910390fd5b34816002015411156102bd576040517f08c379a00000000000000000000000000000000000000000000000000000000081526004016102b490610bb9565b60405180910390fd5b33815f015f6101000a81548173ffffffffffffffffffffffffffffffffffffffff021916908373ffffffffffffffffffffffffffffffffffffffff1602179055505f816004015f6101000a81548160ff021916908315150217905550805f015f9054906101000a900473ffffffffffffffffffffffffffffffffffffffff1673ffffffffffffffffffffffffffffffffffffffff166108fc826002015490811502906040515f60405180830381858888f19350505050158015610382573d5f803e3d5ffd5b507f8b48eedce84547af0d9b8761631ce10313cabdecfa93c1684c106bd65537dd72826040516103b291906106fa565b60405180910390a15050565b600181815481106103cd575f80fd5b905f5260205f20015f915090505481565b5f602052805f5260405f205f91509050805f015f9054906101000a900473ffffffffffffffffffffffffffffffffffffffff16908060010180546104219061086b565b80601f016020809104026020016040519081016040528092919081815260200182805461044d9061086b565b80156104985780601f1061046f57610100808354040283529160200191610498565b820191905f5260205f20905b81548152906001019060200180831161047b57829003601f168201915b505050505090806002015490806003015490806004015f9054906101000a900460ff16905085565b5f604051905090565b5f80fd5b5f80fd5b5f819050919050565b6104e3816104d1565b81146104ed575f80fd5b50565b5f813590506104fe816104da565b92915050565b5f80fd5b5f80fd5b5f601f19601f8301169050919050565b7f4e487b71000000000000000000000000000000000000000000000000000000005f52604160045260245ffd5b6105528261050c565b810181811067ffffffffffffffff821117156105715761057061051c565b5b80604052505050565b5f6105836104c0565b905061058f8282610549565b919050565b5f67ffffffffffffffff8211156105ae576105ad61051c565b5b6105b78261050c565b9050602081019050919050565b828183375f83830152505050565b5f6105e46105df84610594565b61057a565b905082815260208101848484011115610600576105ff610508565b5b61060b8482856105c4565b509392505050565b5f82601f83011261062757610626610504565b5b81356106378482602086016105d2565b91505092915050565b5f805f8060808587031215610658576106576104c9565b5b5f610665878288016104f0565b945050602085013567ffffffffffffffff811115610686576106856104cd565b5b61069287828801610613565b93505060406106a3878288016104f0565b92505060606106b4878288016104f0565b91505092959194509250565b5f602082840312156106d5576106d46104c9565b5b5f6106e2848285016104f0565b91505092915050565b6106f4816104d1565b82525050565b5f60208201905061070d5f8301846106eb565b92915050565b5f73ffffffffffffffffffffffffffffffffffffffff82169050919050565b5f61073c82610713565b9050919050565b61074c81610732565b82525050565b5f81519050919050565b5f82825260208201905092915050565b5f5b8381101561078957808201518184015260208101905061076e565b5f8484015250505050565b5f61079e82610752565b6107a8818561075c565b93506107b881856020860161076c565b6107c18161050c565b840191505092915050565b5f8115159050919050565b6107e0816107cc565b82525050565b5f60a0820190506107f95f830188610743565b818103602083015261080b8187610794565b905061081a60408301866106eb565b61082760608301856106eb565b61083460808301846107d7565b9695505050505050565b7f4e487b71000000000000000000000000000000000000000000000000000000005f52602260045260245ffd5b5f600282049050600182168061088257607f821691505b6020821081036108955761089461083e565b5b50919050565b5f819050815f5260205f209050919050565b5f6020601f8301049050919050565b5f82821b905092915050565b5f600883026108f77fffffffffffffffffffffffffffffffffffffffffffffffffffffffffffffffff826108bc565b61090186836108bc565b95508019841693508086168417925050509392505050565b5f819050919050565b5f61093c610937610932846104d1565b610919565b6104d1565b9050919050565b5f819050919050565b61095583610922565b61096961096182610943565b8484546108c8565b825550505050565b5f90565b61097d610971565b61098881848461094c565b505050565b5b818110156109ab576109a05f82610975565b60018101905061098e565b5050565b601f8211156109f0576109c18161089b565b6109ca846108ad565b810160208510156109d9578190505b6109ed6109e5856108ad565b83018261098d565b50505b505050565b5f82821c905092915050565b5f610a105f19846008026109f5565b1980831691505092915050565b5f610a288383610a01565b9150826002028217905092915050565b610a4182610752565b67ffffffffffffffff811115610a5a57610a5961051c565b5b610a64825461086b565b610a6f8282856109af565b5f60209050601f831160018114610aa0575f8415610a8e578287015190505b610a988582610a1d565b865550610aff565b601f198416610aae8661089b565b5f5b82811015610ad557848901518255600182019150602085019450602081019050610ab0565b86831015610af25784890151610aee601f891682610a01565b8355505b6001600288020188555050505b505050505050565b7f50726f7065727479206973206e6f7420666f72204c65617365212121000000005f82015250565b5f610b3b601c8361075c565b9150610b4682610b07565b602082019050919050565b5f6020820190508181035f830152610b6881610b2f565b9050919050565b7f496e73756666696369656e742046756e647300000000000000000000000000005f82015250565b5f610ba360128361075c565b9150610bae82610b6f565b602082019050919050565b5f6020820190508181035f830152610bd081610b97565b905091905056fea264697066735822122049af1490820c1f5e50c765ba7e7d745810fdee151266243619966da7d0a9840164736f6c63430008160033",
			"opcodes": "PUSH1 0x80 PUSH1 0x40 MSTORE CALLVALUE DUP1 ISZERO PUSH2 0xF JUMPI PUSH0 DUP1 REVERT JUMPDEST POP PUSH2 0xC0D DUP1 PUSH2 0x1D PUSH0 CODECOPY PUSH0 RETURN INVALID PUSH1 0x80 PUSH1 0x40 MSTORE PUSH1 0x4 CALLDATASIZE LT PUSH2 0x3E JUMPI PUSH0 CALLDATALOAD PUSH1 0xE0 SHR DUP1 PUSH4 0x6A7E9212 EQ PUSH2 0x42 JUMPI DUP1 PUSH4 0x9D36AB6C EQ PUSH2 0x6A JUMPI DUP1 PUSH4 0xC1AE85FE EQ PUSH2 0x86 JUMPI DUP1 PUSH4 0xF7B10808 EQ PUSH2 0xC2 JUMPI JUMPDEST PUSH0 DUP1 REVERT JUMPDEST CALLVALUE DUP1 ISZERO PUSH2 0x4D JUMPI PUSH0 DUP1 REVERT JUMPDEST POP PUSH2 0x68 PUSH1 0x4 DUP1 CALLDATASIZE SUB DUP2 ADD SWAP1 PUSH2 0x63 SWAP2 SWAP1 PUSH2 0x640 JUMP JUMPDEST PUSH2 0x102 JUMP JUMPDEST STOP JUMPDEST PUSH2 0x84 PUSH1 0x4 DUP1 CALLDATASIZE SUB DUP2 ADD SWAP1 PUSH2 0x7F SWAP2 SWAP1 PUSH2 0x6C0 JUMP JUMPDEST PUSH2 0x213 JUMP JUMPDEST STOP JUMPDEST CALLVALUE DUP1 ISZERO PUSH2 0x91 JUMPI PUSH0 DUP1 REVERT JUMPDEST POP PUSH2 0xAC PUSH1 0x4 DUP1 CALLDATASIZE SUB DUP2 ADD SWAP1 PUSH2 0xA7 SWAP2 SWAP1 PUSH2 0x6C0 JUMP JUMPDEST PUSH2 0x3BE JUMP JUMPDEST PUSH1 0x40 MLOAD PUSH2 0xB9 SWAP2 SWAP1 PUSH2 0x6FA JUMP JUMPDEST PUSH1 0x40 MLOAD DUP1 SWAP2 SUB SWAP1 RETURN JUMPDEST CALLVALUE DUP1 ISZERO PUSH2 0xCD JUMPI PUSH0 DUP1 REVERT JUMPDEST POP PUSH2 0xE8 PUSH1 0x4 DUP1 CALLDATASIZE SUB DUP2 ADD SWAP1 PUSH2 0xE3 SWAP2 SWAP1 PUSH2 0x6C0 JUMP JUMPDEST PUSH2 0x3DE JUMP JUMPDEST PUSH1 0x40 MLOAD PUSH2 0xF9 SWAP6 SWAP5 SWAP4 SWAP3 SWAP2 SWAP1 PUSH2 0x7E6 JUMP JUMPDEST PUSH1 0x40 MLOAD DUP1 SWAP2 SUB SWAP1 RETURN JUMPDEST PUSH0 PUSH1 0x40 MLOAD DUP1 PUSH1 0xA0 ADD PUSH1 0x40 MSTORE DUP1 CALLER PUSH20 0xFFFFFFFFFFFFFFFFFFFFFFFFFFFFFFFFFFFFFFFF AND DUP2 MSTORE PUSH1 0x20 ADD DUP6 DUP2 MSTORE PUSH1 0x20 ADD DUP5 DUP2 MSTORE PUSH1 0x20 ADD DUP4 DUP2 MSTORE PUSH1 0x20 ADD PUSH1 0x1 ISZERO ISZERO DUP2 MSTORE POP SWAP1 POP DUP1 PUSH0 DUP1 DUP8 DUP2 MSTORE PUSH1 0x20 ADD SWAP1 DUP2 MSTORE PUSH1 0x20 ADD PUSH0 KECCAK256 PUSH0 DUP3 ADD MLOAD DUP2 PUSH0 ADD PUSH0 PUSH2 0x100 EXP DUP2 SLOAD DUP2 PUSH20 0xFFFFFFFFFFFFFFFFFFFFFFFFFFFFFFFFFFFFFFFF MUL NOT AND SWAP1 DUP4 PUSH20 0xFFFFFFFFFFFFFFFFFFFFFFFFFFFFFFFFFFFFFFFF AND MUL OR SWAP1 SSTORE POP PUSH1 0x20 DUP3 ADD MLOAD DUP2 PUSH1 0x1 ADD SWAP1 DUP2 PUSH2 0x1AF SWAP2 SWAP1 PUSH2 0xA38 JUMP JUMPDEST POP PUSH1 0x40 DUP3 ADD MLOAD DUP2 PUSH1 0x2 ADD SSTORE PUSH1 0x60 DUP3 ADD MLOAD DUP2 PUSH1 0x3 ADD SSTORE PUSH1 0x80 DUP3 ADD MLOAD DUP2 PUSH1 0x4 ADD PUSH0 PUSH2 0x100 EXP DUP2 SLOAD DUP2 PUSH1 0xFF MUL NOT AND SWAP1 DUP4 ISZERO ISZERO MUL OR SWAP1 SSTORE POP SWAP1 POP POP PUSH1 0x1 DUP6 SWAP1 DUP1 PUSH1 0x1 DUP2 SLOAD ADD DUP1 DUP3 SSTORE DUP1 SWAP2 POP POP PUSH1 0x1 SWAP1 SUB SWAP1 PUSH0 MSTORE PUSH1 0x20 PUSH0 KECCAK256 ADD PUSH0 SWAP1 SWAP2 SWAP1 SWAP2 SWAP1 SWAP2 POP SSTORE POP POP POP POP POP JUMP JUMPDEST PUSH0 DUP1 PUSH0 DUP4 DUP2 MSTORE PUSH1 0x20 ADD SWAP1 DUP2 MSTORE PUSH1 0x20 ADD PUSH0 KECCAK256 SWAP1 POP DUP1 PUSH1 0x4 ADD PUSH0 SWAP1 SLOAD SWAP1 PUSH2 0x100 EXP SWAP1 DIV PUSH1 0xFF AND PUSH2 0x276 JUMPI PUSH1 0x40 MLOAD PUSH32 0x8C379A000000000000000000000000000000000000000000000000000000000 DUP2 MSTORE PUSH1 0x4 ADD PUSH2 0x26D SWAP1 PUSH2 0xB51 JUMP JUMPDEST PUSH1 0x40 MLOAD DUP1 SWAP2 SUB SWAP1 REVERT JUMPDEST CALLVALUE DUP2 PUSH1 0x2 ADD SLOAD GT ISZERO PUSH2 0x2BD JUMPI PUSH1 0x40 MLOAD PUSH32 0x8C379A000000000000000000000000000000000000000000000000000000000 DUP2 MSTORE PUSH1 0x4 ADD PUSH2 0x2B4 SWAP1 PUSH2 0xBB9 JUMP JUMPDEST PUSH1 0x40 MLOAD DUP1 SWAP2 SUB SWAP1 REVERT JUMPDEST CALLER DUP2 PUSH0 ADD PUSH0 PUSH2 0x100 EXP DUP2 SLOAD DUP2 PUSH20 0xFFFFFFFFFFFFFFFFFFFFFFFFFFFFFFFFFFFFFFFF MUL NOT AND SWAP1 DUP4 PUSH20 0xFFFFFFFFFFFFFFFFFFFFFFFFFFFFFFFFFFFFFFFF AND MUL OR SWAP1 SSTORE POP PUSH0 DUP2 PUSH1 0x4 ADD PUSH0 PUSH2 0x100 EXP DUP2 SLOAD DUP2 PUSH1 0xFF MUL NOT AND SWAP1 DUP4 ISZERO ISZERO MUL OR SWAP1 SSTORE POP DUP1 PUSH0 ADD PUSH0 SWAP1 SLOAD SWAP1 PUSH2 0x100 EXP SWAP1 DIV PUSH20 0xFFFFFFFFFFFFFFFFFFFFFFFFFFFFFFFFFFFFFFFF AND PUSH20 0xFFFFFFFFFFFFFFFFFFFFFFFFFFFFFFFFFFFFFFFF AND PUSH2 0x8FC DUP3 PUSH1 0x2 ADD SLOAD SWAP1 DUP2 ISZERO MUL SWAP1 PUSH1 0x40 MLOAD PUSH0 PUSH1 0x40 MLOAD DUP1 DUP4 SUB DUP2 DUP6 DUP9 DUP9 CALL SWAP4 POP POP POP POP ISZERO DUP1 ISZERO PUSH2 0x382 JUMPI RETURNDATASIZE PUSH0 DUP1 RETURNDATACOPY RETURNDATASIZE PUSH0 REVERT JUMPDEST POP PUSH32 0x8B48EEDCE84547AF0D9B8761631CE10313CABDECFA93C1684C106BD65537DD72 DUP3 PUSH1 0x40 MLOAD PUSH2 0x3B2 SWAP2 SWAP1 PUSH2 0x6FA JUMP JUMPDEST PUSH1 0x40 MLOAD DUP1 SWAP2 SUB SWAP1 LOG1 POP POP JUMP JUMPDEST PUSH1 0x1 DUP2 DUP2 SLOAD DUP2 LT PUSH2 0x3CD JUMPI PUSH0 DUP1 REVERT JUMPDEST SWAP1 PUSH0 MSTORE PUSH1 0x20 PUSH0 KECCAK256 ADD PUSH0 SWAP2 POP SWAP1 POP SLOAD DUP2 JUMP JUMPDEST PUSH0 PUSH1 0x20 MSTORE DUP1 PUSH0 MSTORE PUSH1 0x40 PUSH0 KECCAK256 PUSH0 SWAP2 POP SWAP1 POP DUP1 PUSH0 ADD PUSH0 SWAP1 SLOAD SWAP1 PUSH2 0x100 EXP SWAP1 DIV PUSH20 0xFFFFFFFFFFFFFFFFFFFFFFFFFFFFFFFFFFFFFFFF AND SWAP1 DUP1 PUSH1 0x1 ADD DUP1 SLOAD PUSH2 0x421 SWAP1 PUSH2 0x86B JUMP JUMPDEST DUP1 PUSH1 0x1F ADD PUSH1 0x20 DUP1 SWAP2 DIV MUL PUSH1 0x20 ADD PUSH1 0x40 MLOAD SWAP1 DUP2 ADD PUSH1 0x40 MSTORE DUP1 SWAP3 SWAP2 SWAP1 DUP2 DUP2 MSTORE PUSH1 0x20 ADD DUP3 DUP1 SLOAD PUSH2 0x44D SWAP1 PUSH2 0x86B JUMP JUMPDEST DUP1 ISZERO PUSH2 0x498 JUMPI DUP1 PUSH1 0x1F LT PUSH2 0x46F JUMPI PUSH2 0x100 DUP1 DUP4 SLOAD DIV MUL DUP4 MSTORE SWAP2 PUSH1 0x20 ADD SWAP2 PUSH2 0x498 JUMP JUMPDEST DUP3 ADD SWAP2 SWAP1 PUSH0 MSTORE PUSH1 0x20 PUSH0 KECCAK256 SWAP1 JUMPDEST DUP2 SLOAD DUP2 MSTORE SWAP1 PUSH1 0x1 ADD SWAP1 PUSH1 0x20 ADD DUP1 DUP4 GT PUSH2 0x47B JUMPI DUP3 SWAP1 SUB PUSH1 0x1F AND DUP3 ADD SWAP2 JUMPDEST POP POP POP POP POP SWAP1 DUP1 PUSH1 0x2 ADD SLOAD SWAP1 DUP1 PUSH1 0x3 ADD SLOAD SWAP1 DUP1 PUSH1 0x4 ADD PUSH0 SWAP1 SLOAD SWAP1 PUSH2 0x100 EXP SWAP1 DIV PUSH1 0xFF AND SWAP1 POP DUP6 JUMP JUMPDEST PUSH0 PUSH1 0x40 MLOAD SWAP1 POP SWAP1 JUMP JUMPDEST PUSH0 DUP1 REVERT JUMPDEST PUSH0 DUP1 REVERT JUMPDEST PUSH0 DUP2 SWAP1 POP SWAP2 SWAP1 POP JUMP JUMPDEST PUSH2 0x4E3 DUP2 PUSH2 0x4D1 JUMP JUMPDEST DUP2 EQ PUSH2 0x4ED JUMPI PUSH0 DUP1 REVERT JUMPDEST POP JUMP JUMPDEST PUSH0 DUP2 CALLDATALOAD SWAP1 POP PUSH2 0x4FE DUP2 PUSH2 0x4DA JUMP JUMPDEST SWAP3 SWAP2 POP POP JUMP JUMPDEST PUSH0 DUP1 REVERT JUMPDEST PUSH0 DUP1 REVERT JUMPDEST PUSH0 PUSH1 0x1F NOT PUSH1 0x1F DUP4 ADD AND SWAP1 POP SWAP2 SWAP1 POP JUMP JUMPDEST PUSH32 0x4E487B7100000000000000000000000000000000000000000000000000000000 PUSH0 MSTORE PUSH1 0x41 PUSH1 0x4 MSTORE PUSH1 0x24 PUSH0 REVERT JUMPDEST PUSH2 0x552 DUP3 PUSH2 0x50C JUMP JUMPDEST DUP2 ADD DUP2 DUP2 LT PUSH8 0xFFFFFFFFFFFFFFFF DUP3 GT OR ISZERO PUSH2 0x571 JUMPI PUSH2 0x570 PUSH2 0x51C JUMP JUMPDEST JUMPDEST DUP1 PUSH1 0x40 MSTORE POP POP POP JUMP JUMPDEST PUSH0 PUSH2 0x583 PUSH2 0x4C0 JUMP JUMPDEST SWAP1 POP PUSH2 0x58F DUP3 DUP3 PUSH2 0x549 JUMP JUMPDEST SWAP2 SWAP1 POP JUMP JUMPDEST PUSH0 PUSH8 0xFFFFFFFFFFFFFFFF DUP3 GT ISZERO PUSH2 0x5AE JUMPI PUSH2 0x5AD PUSH2 0x51C JUMP JUMPDEST JUMPDEST PUSH2 0x5B7 DUP3 PUSH2 0x50C JUMP JUMPDEST SWAP1 POP PUSH1 0x20 DUP2 ADD SWAP1 POP SWAP2 SWAP1 POP JUMP JUMPDEST DUP3 DUP2 DUP4 CALLDATACOPY PUSH0 DUP4 DUP4 ADD MSTORE POP POP POP JUMP JUMPDEST PUSH0 PUSH2 0x5E4 PUSH2 0x5DF DUP5 PUSH2 0x594 JUMP JUMPDEST PUSH2 0x57A JUMP JUMPDEST SWAP1 POP DUP3 DUP2 MSTORE PUSH1 0x20 DUP2 ADD DUP5 DUP5 DUP5 ADD GT ISZERO PUSH2 0x600 JUMPI PUSH2 0x5FF PUSH2 0x508 JUMP JUMPDEST JUMPDEST PUSH2 0x60B DUP5 DUP3 DUP6 PUSH2 0x5C4 JUMP JUMPDEST POP SWAP4 SWAP3 POP POP POP JUMP JUMPDEST PUSH0 DUP3 PUSH1 0x1F DUP4 ADD SLT PUSH2 0x627 JUMPI PUSH2 0x626 PUSH2 0x504 JUMP JUMPDEST JUMPDEST DUP2 CALLDATALOAD PUSH2 0x637 DUP5 DUP3 PUSH1 0x20 DUP7 ADD PUSH2 0x5D2 JUMP JUMPDEST SWAP2 POP POP SWAP3 SWAP2 POP POP JUMP JUMPDEST PUSH0 DUP1 PUSH0 DUP1 PUSH1 0x80 DUP6 DUP8 SUB SLT ISZERO PUSH2 0x658 JUMPI PUSH2 0x657 PUSH2 0x4C9 JUMP JUMPDEST JUMPDEST PUSH0 PUSH2 0x665 DUP8 DUP3 DUP9 ADD PUSH2 0x4F0 JUMP JUMPDEST SWAP5 POP POP PUSH1 0x20 DUP6 ADD CALLDATALOAD PUSH8 0xFFFFFFFFFFFFFFFF DUP2 GT ISZERO PUSH2 0x686 JUMPI PUSH2 0x685 PUSH2 0x4CD JUMP JUMPDEST JUMPDEST PUSH2 0x692 DUP8 DUP3 DUP9 ADD PUSH2 0x613 JUMP JUMPDEST SWAP4 POP POP PUSH1 0x40 PUSH2 0x6A3 DUP8 DUP3 DUP9 ADD PUSH2 0x4F0 JUMP JUMPDEST SWAP3 POP POP PUSH1 0x60 PUSH2 0x6B4 DUP8 DUP3 DUP9 ADD PUSH2 0x4F0 JUMP JUMPDEST SWAP2 POP POP SWAP3 SWAP6 SWAP2 SWAP5 POP SWAP3 POP JUMP JUMPDEST PUSH0 PUSH1 0x20 DUP3 DUP5 SUB SLT ISZERO PUSH2 0x6D5 JUMPI PUSH2 0x6D4 PUSH2 0x4C9 JUMP JUMPDEST JUMPDEST PUSH0 PUSH2 0x6E2 DUP5 DUP3 DUP6 ADD PUSH2 0x4F0 JUMP JUMPDEST SWAP2 POP POP SWAP3 SWAP2 POP POP JUMP JUMPDEST PUSH2 0x6F4 DUP2 PUSH2 0x4D1 JUMP JUMPDEST DUP3 MSTORE POP POP JUMP JUMPDEST PUSH0 PUSH1 0x20 DUP3 ADD SWAP1 POP PUSH2 0x70D PUSH0 DUP4 ADD DUP5 PUSH2 0x6EB JUMP JUMPDEST SWAP3 SWAP2 POP POP JUMP JUMPDEST PUSH0 PUSH20 0xFFFFFFFFFFFFFFFFFFFFFFFFFFFFFFFFFFFFFFFF DUP3 AND SWAP1 POP SWAP2 SWAP1 POP JUMP JUMPDEST PUSH0 PUSH2 0x73C DUP3 PUSH2 0x713 JUMP JUMPDEST SWAP1 POP SWAP2 SWAP1 POP JUMP JUMPDEST PUSH2 0x74C DUP2 PUSH2 0x732 JUMP JUMPDEST DUP3 MSTORE POP POP JUMP JUMPDEST PUSH0 DUP2 MLOAD SWAP1 POP SWAP2 SWAP1 POP JUMP JUMPDEST PUSH0 DUP3 DUP3 MSTORE PUSH1 0x20 DUP3 ADD SWAP1 POP SWAP3 SWAP2 POP POP JUMP JUMPDEST PUSH0 JUMPDEST DUP4 DUP2 LT ISZERO PUSH2 0x789 JUMPI DUP1 DUP3 ADD MLOAD DUP2 DUP5 ADD MSTORE PUSH1 0x20 DUP2 ADD SWAP1 POP PUSH2 0x76E JUMP JUMPDEST PUSH0 DUP5 DUP5 ADD MSTORE POP POP POP POP JUMP JUMPDEST PUSH0 PUSH2 0x79E DUP3 PUSH2 0x752 JUMP JUMPDEST PUSH2 0x7A8 DUP2 DUP6 PUSH2 0x75C JUMP JUMPDEST SWAP4 POP PUSH2 0x7B8 DUP2 DUP6 PUSH1 0x20 DUP7 ADD PUSH2 0x76C JUMP JUMPDEST PUSH2 0x7C1 DUP2 PUSH2 0x50C JUMP JUMPDEST DUP5 ADD SWAP2 POP POP SWAP3 SWAP2 POP POP JUMP JUMPDEST PUSH0 DUP2 ISZERO ISZERO SWAP1 POP SWAP2 SWAP1 POP JUMP JUMPDEST PUSH2 0x7E0 DUP2 PUSH2 0x7CC JUMP JUMPDEST DUP3 MSTORE POP POP JUMP JUMPDEST PUSH0 PUSH1 0xA0 DUP3 ADD SWAP1 POP PUSH2 0x7F9 PUSH0 DUP4 ADD DUP9 PUSH2 0x743 JUMP JUMPDEST DUP2 DUP2 SUB PUSH1 0x20 DUP4 ADD MSTORE PUSH2 0x80B DUP2 DUP8 PUSH2 0x794 JUMP JUMPDEST SWAP1 POP PUSH2 0x81A PUSH1 0x40 DUP4 ADD DUP7 PUSH2 0x6EB JUMP JUMPDEST PUSH2 0x827 PUSH1 0x60 DUP4 ADD DUP6 PUSH2 0x6EB JUMP JUMPDEST PUSH2 0x834 PUSH1 0x80 DUP4 ADD DUP5 PUSH2 0x7D7 JUMP JUMPDEST SWAP7 SWAP6 POP POP POP POP POP POP JUMP JUMPDEST PUSH32 0x4E487B7100000000000000000000000000000000000000000000000000000000 PUSH0 MSTORE PUSH1 0x22 PUSH1 0x4 MSTORE PUSH1 0x24 PUSH0 REVERT JUMPDEST PUSH0 PUSH1 0x2 DUP3 DIV SWAP1 POP PUSH1 0x1 DUP3 AND DUP1 PUSH2 0x882 JUMPI PUSH1 0x7F DUP3 AND SWAP2 POP JUMPDEST PUSH1 0x20 DUP3 LT DUP2 SUB PUSH2 0x895 JUMPI PUSH2 0x894 PUSH2 0x83E JUMP JUMPDEST JUMPDEST POP SWAP2 SWAP1 POP JUMP JUMPDEST PUSH0 DUP2 SWAP1 POP DUP2 PUSH0 MSTORE PUSH1 0x20 PUSH0 KECCAK256 SWAP1 POP SWAP2 SWAP1 POP JUMP JUMPDEST PUSH0 PUSH1 0x20 PUSH1 0x1F DUP4 ADD DIV SWAP1 POP SWAP2 SWAP1 POP JUMP JUMPDEST PUSH0 DUP3 DUP3 SHL SWAP1 POP SWAP3 SWAP2 POP POP JUMP JUMPDEST PUSH0 PUSH1 0x8 DUP4 MUL PUSH2 0x8F7 PUSH32 0xFFFFFFFFFFFFFFFFFFFFFFFFFFFFFFFFFFFFFFFFFFFFFFFFFFFFFFFFFFFFFFFF DUP3 PUSH2 0x8BC JUMP JUMPDEST PUSH2 0x901 DUP7 DUP4 PUSH2 0x8BC JUMP JUMPDEST SWAP6 POP DUP1 NOT DUP5 AND SWAP4 POP DUP1 DUP7 AND DUP5 OR SWAP3 POP POP POP SWAP4 SWAP3 POP POP POP JUMP JUMPDEST PUSH0 DUP2 SWAP1 POP SWAP2 SWAP1 POP JUMP JUMPDEST PUSH0 PUSH2 0x93C PUSH2 0x937 PUSH2 0x932 DUP5 PUSH2 0x4D1 JUMP JUMPDEST PUSH2 0x919 JUMP JUMPDEST PUSH2 0x4D1 JUMP JUMPDEST SWAP1 POP SWAP2 SWAP1 POP JUMP JUMPDEST PUSH0 DUP2 SWAP1 POP SWAP2 SWAP1 POP JUMP JUMPDEST PUSH2 0x955 DUP4 PUSH2 0x922 JUMP JUMPDEST PUSH2 0x969 PUSH2 0x961 DUP3 PUSH2 0x943 JUMP JUMPDEST DUP5 DUP5 SLOAD PUSH2 0x8C8 JUMP JUMPDEST DUP3 SSTORE POP POP POP POP JUMP JUMPDEST PUSH0 SWAP1 JUMP JUMPDEST PUSH2 0x97D PUSH2 0x971 JUMP JUMPDEST PUSH2 0x988 DUP2 DUP5 DUP5 PUSH2 0x94C JUMP JUMPDEST POP POP POP JUMP JUMPDEST JUMPDEST DUP2 DUP2 LT ISZERO PUSH2 0x9AB JUMPI PUSH2 0x9A0 PUSH0 DUP3 PUSH2 0x975 JUMP JUMPDEST PUSH1 0x1 DUP2 ADD SWAP1 POP PUSH2 0x98E JUMP JUMPDEST POP POP JUMP JUMPDEST PUSH1 0x1F DUP3 GT ISZERO PUSH2 0x9F0 JUMPI PUSH2 0x9C1 DUP2 PUSH2 0x89B JUMP JUMPDEST PUSH2 0x9CA DUP5 PUSH2 0x8AD JUMP JUMPDEST DUP2 ADD PUSH1 0x20 DUP6 LT ISZERO PUSH2 0x9D9 JUMPI DUP2 SWAP1 POP JUMPDEST PUSH2 0x9ED PUSH2 0x9E5 DUP6 PUSH2 0x8AD JUMP JUMPDEST DUP4 ADD DUP3 PUSH2 0x98D JUMP JUMPDEST POP POP JUMPDEST POP POP POP JUMP JUMPDEST PUSH0 DUP3 DUP3 SHR SWAP1 POP SWAP3 SWAP2 POP POP JUMP JUMPDEST PUSH0 PUSH2 0xA10 PUSH0 NOT DUP5 PUSH1 0x8 MUL PUSH2 0x9F5 JUMP JUMPDEST NOT DUP1 DUP4 AND SWAP2 POP POP SWAP3 SWAP2 POP POP JUMP JUMPDEST PUSH0 PUSH2 0xA28 DUP4 DUP4 PUSH2 0xA01 JUMP JUMPDEST SWAP2 POP DUP3 PUSH1 0x2 MUL DUP3 OR SWAP1 POP SWAP3 SWAP2 POP POP JUMP JUMPDEST PUSH2 0xA41 DUP3 PUSH2 0x752 JUMP JUMPDEST PUSH8 0xFFFFFFFFFFFFFFFF DUP2 GT ISZERO PUSH2 0xA5A JUMPI PUSH2 0xA59 PUSH2 0x51C JUMP JUMPDEST JUMPDEST PUSH2 0xA64 DUP3 SLOAD PUSH2 0x86B JUMP JUMPDEST PUSH2 0xA6F DUP3 DUP3 DUP6 PUSH2 0x9AF JUMP JUMPDEST PUSH0 PUSH1 0x20 SWAP1 POP PUSH1 0x1F DUP4 GT PUSH1 0x1 DUP2 EQ PUSH2 0xAA0 JUMPI PUSH0 DUP5 ISZERO PUSH2 0xA8E JUMPI DUP3 DUP8 ADD MLOAD SWAP1 POP JUMPDEST PUSH2 0xA98 DUP6 DUP3 PUSH2 0xA1D JUMP JUMPDEST DUP7 SSTORE POP PUSH2 0xAFF JUMP JUMPDEST PUSH1 0x1F NOT DUP5 AND PUSH2 0xAAE DUP7 PUSH2 0x89B JUMP JUMPDEST PUSH0 JUMPDEST DUP3 DUP2 LT ISZERO PUSH2 0xAD5 JUMPI DUP5 DUP10 ADD MLOAD DUP3 SSTORE PUSH1 0x1 DUP3 ADD SWAP2 POP PUSH1 0x20 DUP6 ADD SWAP5 POP PUSH1 0x20 DUP2 ADD SWAP1 POP PUSH2 0xAB0 JUMP JUMPDEST DUP7 DUP4 LT ISZERO PUSH2 0xAF2 JUMPI DUP5 DUP10 ADD MLOAD PUSH2 0xAEE PUSH1 0x1F DUP10 AND DUP3 PUSH2 0xA01 JUMP JUMPDEST DUP4 SSTORE POP JUMPDEST PUSH1 0x1 PUSH1 0x2 DUP9 MUL ADD DUP9 SSTORE POP POP POP JUMPDEST POP POP POP POP POP POP JUMP JUMPDEST PUSH32 0x50726F7065727479206973206E6F7420666F72204C6561736521212100000000 PUSH0 DUP3 ADD MSTORE POP JUMP JUMPDEST PUSH0 PUSH2 0xB3B PUSH1 0x1C DUP4 PUSH2 0x75C JUMP JUMPDEST SWAP2 POP PUSH2 0xB46 DUP3 PUSH2 0xB07 JUMP JUMPDEST PUSH1 0x20 DUP3 ADD SWAP1 POP SWAP2 SWAP1 POP JUMP JUMPDEST PUSH0 PUSH1 0x20 DUP3 ADD SWAP1 POP DUP2 DUP2 SUB PUSH0 DUP4 ADD MSTORE PUSH2 0xB68 DUP2 PUSH2 0xB2F JUMP JUMPDEST SWAP1 POP SWAP2 SWAP1 POP JUMP JUMPDEST PUSH32 0x496E73756666696369656E742046756E64730000000000000000000000000000 PUSH0 DUP3 ADD MSTORE POP JUMP JUMPDEST PUSH0 PUSH2 0xBA3 PUSH1 0x12 DUP4 PUSH2 0x75C JUMP JUMPDEST SWAP2 POP PUSH2 0xBAE DUP3 PUSH2 0xB6F JUMP JUMPDEST PUSH1 0x20 DUP3 ADD SWAP1 POP SWAP2 SWAP1 POP JUMP JUMPDEST PUSH0 PUSH1 0x20 DUP3 ADD SWAP1 POP DUP2 DUP2 SUB PUSH0 DUP4 ADD MSTORE PUSH2 0xBD0 DUP2 PUSH2 0xB97 JUMP JUMPDEST SWAP1 POP SWAP2 SWAP1 POP JUMP INVALID LOG2 PUSH5 0x6970667358 0x22 SLT KECCAK256 0x49 0xAF EQ SWAP1 DUP3 0xC 0x1F 0x5E POP 0xC7 PUSH6 0xBA7E7D745810 REVERT 0xEE ISZERO SLT PUSH7 0x243619966DA7D0 0xA9 DUP5 ADD PUSH5 0x736F6C6343 STOP ADDMOD AND STOP CALLER "
		},
		"gasEstimates": {
			"creation": {
				"codeDepositCost": "617000",
				"executionCost": "649",
				"totalCost": "617649"
			},
			"external": {
				"properties(uint256)": "infinite",
				"propertyForLease(uint256,string,uint256,uint256)": "infinite",
				"propertyIDs(uint256)": "infinite",
				"rentProperty(uint256)": "infinite"
			}
		},
		"methodIdentifiers": {
			"properties(uint256)": "f7b10808",
			"propertyForLease(uint256,string,uint256,uint256)": "6a7e9212",
			"propertyIDs(uint256)": "c1ae85fe",
			"rentProperty(uint256)": "9d36ab6c"
		}
	},
	"abi": [
		{
			"anonymous": false,
			"inputs": [
				{
					"indexed": false,
					"internalType": "uint256",
					"name": "propertID",
					"type": "uint256"
				}
			],
			"name": "propertySold",
			"type": "event"
		},
		{
			"inputs": [
				{
					"internalType": "uint256",
					"name": "",
					"type": "uint256"
				}
			],
			"name": "properties",
			"outputs": [
				{
					"internalType": "address",
					"name": "owner",
					"type": "address"
				},
				{
					"internalType": "string",
					"name": "Name",
					"type": "string"
				},
				{
					"internalType": "uint256",
					"name": "leaseAmount",
					"type": "uint256"
				},
				{
					"internalType": "uint256",
					"name": "securityDeposit",
					"type": "uint256"
				},
				{
					"internalType": "bool",
					"name": "propertyForLease",
					"type": "bool"
				}
			],
			"stateMutability": "view",
			"type": "function"
		},
		{
			"inputs": [
				{
					"internalType": "uint256",
					"name": "_propertyID",
					"type": "uint256"
				},
				{
					"internalType": "string",
					"name": "_Name",
					"type": "string"
				},
				{
					"internalType": "uint256",
					"name": "_leaseAmount",
					"type": "uint256"
				},
				{
					"internalType": "uint256",
					"name": "_securityDeposit",
					"type": "uint256"
				}
			],
			"name": "propertyForLease",
			"outputs": [],
			"stateMutability": "nonpayable",
			"type": "function"
		},
		{
			"inputs": [
				{
					"internalType": "uint256",
					"name": "",
					"type": "uint256"
				}
			],
			"name": "propertyIDs",
			"outputs": [
				{
					"internalType": "uint256",
					"name": "",
					"type": "uint256"
				}
			],
			"stateMutability": "view",
			"type": "function"
		},
		{
			"inputs": [
				{
					"internalType": "uint256",
					"name": "_propertyID",
					"type": "uint256"
				}
			],
			"name": "rentProperty",
			"outputs": [],
			"stateMutability": "payable",
			"type": "function"
		}
	]
}