{
	"data": {
		"bytecode": {
			"linkReferences": {},
			"object": "608060405234801561000f575f80fd5b50604051610e52380380610e52833981810160405281019061003191906100b4565b335f806101000a81548173ffffffffffffffffffffffffffffffffffffffff021916908373ffffffffffffffffffffffffffffffffffffffff16021790555080600281905550506100df565b5f80fd5b5f819050919050565b61009381610081565b811461009d575f80fd5b50565b5f815190506100ae8161008a565b92915050565b5f602082840312156100c9576100c861007d565b5b5f6100d6848285016100a0565b91505092915050565b610d66806100ec5f395ff3fe608060405260043610610090575f3560e01c8063b69ef8a811610058578063b69ef8a814610156578063b76d4fc314610180578063ce845d1d146101aa578063d0e30db0146101d4578063e3abc2bc146101de57610090565b8063155dd5ee1461009457806327e235e3146100b05780637729837f146100ec5780637c3a00fd146101025780638da5cb5b1461012c575b5f80fd5b6100ae60048036038101906100a99190610802565b61021b565b005b3480156100bb575f80fd5b506100d660048036038101906100d19190610887565b6103c3565b6040516100e391906108c1565b60405180910390f35b3480156100f7575f80fd5b506101006103d8565b005b34801561010d575f80fd5b50610116610579565b60405161012391906108c1565b60405180910390f35b348015610137575f80fd5b5061014061057f565b60405161014d91906108e9565b60405180910390f35b348015610161575f80fd5b5061016a6105a2565b60405161017791906108c1565b60405180910390f35b34801561018b575f80fd5b506101946105a8565b6040516101a191906109e6565b60405180910390f35b3480156101b5575f80fd5b506101be610652565b6040516101cb91906108c1565b60405180910390f35b6101dc61065b565b005b3480156101e9575f80fd5b5061020460048036038101906101ff9190610a06565b610791565b604051610212929190610a44565b60405180910390f35b5f8111801561022c57506001548111155b61026b576040517f08c379a000000000000000000000000000000000000000000000000000000000815260040161026290610ac5565b60405180910390fd5b5f8054906101000a900473ffffffffffffffffffffffffffffffffffffffff1673ffffffffffffffffffffffffffffffffffffffff166108fc8290811502906040515f60405180830381858888f193505050501580156102cd573d5f803e3d5ffd5b508060015f8282546102df9190610b10565b9250508190555060045f3373ffffffffffffffffffffffffffffffffffffffff1673ffffffffffffffffffffffffffffffffffffffff1681526020019081526020015f20604051806040016040528034815260200142815250908060018154018082558091505060019003905f5260205f2090600202015f909190919091505f820151815f01556020820151816001015550503373ffffffffffffffffffffffffffffffffffffffff167f7fcf532c15f0a6db0bd6d0e038bea71d30d808c7d98cb3bf7268a95bf5081b65826040516103b891906108c1565b60405180910390a250565b6003602052805f5260405f205f915090505481565b5f8054906101000a900473ffffffffffffffffffffffffffffffffffffffff1673ffffffffffffffffffffffffffffffffffffffff163373ffffffffffffffffffffffffffffffffffffffff1614610465576040517f08c379a000000000000000000000000000000000000000000000000000000000815260040161045c90610bb3565b60405180910390fd5b5f60646002546001546104789190610bd1565b6104829190610c3f565b90508060015f8282546104959190610c6f565b9250508190555060045f3373ffffffffffffffffffffffffffffffffffffffff1673ffffffffffffffffffffffffffffffffffffffff1681526020019081526020015f20604051806040016040528083815260200142815250908060018154018082558091505060019003905f5260205f2090600202015f909190919091505f820151815f01556020820151816001015550503373ffffffffffffffffffffffffffffffffffffffff167f65724bab62e2b372c625ed834016c4e1750f8074aad18b22844457f35ea61d738260405161056e91906108c1565b60405180910390a250565b60025481565b5f8054906101000a900473ffffffffffffffffffffffffffffffffffffffff1681565b60015481565b606060045f3373ffffffffffffffffffffffffffffffffffffffff1673ffffffffffffffffffffffffffffffffffffffff1681526020019081526020015f20805480602002602001604051908101604052809291908181526020015f905b82821015610649578382905f5260205f2090600202016040518060400160405290815f820154815260200160018201548152505081526020019060010190610606565b50505050905090565b5f600154905090565b5f341161069d576040517f08c379a000000000000000000000000000000000000000000000000000000000815260040161069490610d12565b60405180910390fd5b3460015f8282546106ae9190610c6f565b9250508190555060045f3373ffffffffffffffffffffffffffffffffffffffff1673ffffffffffffffffffffffffffffffffffffffff1681526020019081526020015f20604051806040016040528034815260200142815250908060018154018082558091505060019003905f5260205f2090600202015f909190919091505f820151815f01556020820151816001015550503373ffffffffffffffffffffffffffffffffffffffff167fe1fffcc4923d04b559f4d29a8bfc6cda04eb5b0d3c460751c2402c5c5cc9109c3460405161078791906108c1565b60405180910390a2565b6004602052815f5260405f2081815481106107aa575f80fd5b905f5260205f2090600202015f9150915050805f0154908060010154905082565b5f80fd5b5f819050919050565b6107e1816107cf565b81146107eb575f80fd5b50565b5f813590506107fc816107d8565b92915050565b5f60208284031215610817576108166107cb565b5b5f610824848285016107ee565b91505092915050565b5f73ffffffffffffffffffffffffffffffffffffffff82169050919050565b5f6108568261082d565b9050919050565b6108668161084c565b8114610870575f80fd5b50565b5f813590506108818161085d565b92915050565b5f6020828403121561089c5761089b6107cb565b5b5f6108a984828501610873565b91505092915050565b6108bb816107cf565b82525050565b5f6020820190506108d45f8301846108b2565b92915050565b6108e38161084c565b82525050565b5f6020820190506108fc5f8301846108da565b92915050565b5f81519050919050565b5f82825260208201905092915050565b5f819050602082019050919050565b610934816107cf565b82525050565b604082015f82015161094e5f85018261092b565b506020820151610961602085018261092b565b50505050565b5f610972838361093a565b60408301905092915050565b5f602082019050919050565b5f61099482610902565b61099e818561090c565b93506109a98361091c565b805f5b838110156109d95781516109c08882610967565b97506109cb8361097e565b9250506001810190506109ac565b5085935050505092915050565b5f6020820190508181035f8301526109fe818461098a565b905092915050565b5f8060408385031215610a1c57610a1b6107cb565b5b5f610a2985828601610873565b9250506020610a3a858286016107ee565b9150509250929050565b5f604082019050610a575f8301856108b2565b610a6460208301846108b2565b9392505050565b5f82825260208201905092915050565b7f496e76616c6964205769746864726177616c20616d6f756e74000000000000005f82015250565b5f610aaf601983610a6b565b9150610aba82610a7b565b602082019050919050565b5f6020820190508181035f830152610adc81610aa3565b9050919050565b7f4e487b71000000000000000000000000000000000000000000000000000000005f52601160045260245ffd5b5f610b1a826107cf565b9150610b25836107cf565b9250828203905081811115610b3d57610b3c610ae3565b5b92915050565b7f4f6e6c79206f776e65722063616e2063616c6c20746869732066756e6374696f5f8201527f6e00000000000000000000000000000000000000000000000000000000000000602082015250565b5f610b9d602183610a6b565b9150610ba882610b43565b604082019050919050565b5f6020820190508181035f830152610bca81610b91565b9050919050565b5f610bdb826107cf565b9150610be6836107cf565b9250828202610bf4816107cf565b91508282048414831517610c0b57610c0a610ae3565b5b5092915050565b7f4e487b71000000000000000000000000000000000000000000000000000000005f52601260045260245ffd5b5f610c49826107cf565b9150610c54836107cf565b925082610c6457610c63610c12565b5b828204905092915050565b5f610c79826107cf565b9150610c84836107cf565b9250828201905080821115610c9c57610c9b610ae3565b5b92915050565b7f4465706f73697420616d6f756e74206d757374206265206772656174657220745f8201527f68616e2030000000000000000000000000000000000000000000000000000000602082015250565b5f610cfc602583610a6b565b9150610d0782610ca2565b604082019050919050565b5f6020820190508181035f830152610d2981610cf0565b905091905056fea2646970667358221220629619c60a01ac6cf7f92f352a7cb9dadea70177b8d56f00b68b88e7a88c4cde64736f6c63430008160033",
			"opcodes": "PUSH1 0x80 PUSH1 0x40 MSTORE CALLVALUE DUP1 ISZERO PUSH2 0xF JUMPI PUSH0 DUP1 REVERT JUMPDEST POP PUSH1 0x40 MLOAD PUSH2 0xE52 CODESIZE SUB DUP1 PUSH2 0xE52 DUP4 CODECOPY DUP2 DUP2 ADD PUSH1 0x40 MSTORE DUP2 ADD SWAP1 PUSH2 0x31 SWAP2 SWAP1 PUSH2 0xB4 JUMP JUMPDEST CALLER PUSH0 DUP1 PUSH2 0x100 EXP DUP2 SLOAD DUP2 PUSH20 0xFFFFFFFFFFFFFFFFFFFFFFFFFFFFFFFFFFFFFFFF MUL NOT AND SWAP1 DUP4 PUSH20 0xFFFFFFFFFFFFFFFFFFFFFFFFFFFFFFFFFFFFFFFF AND MUL OR SWAP1 SSTORE POP DUP1 PUSH1 0x2 DUP2 SWAP1 SSTORE POP POP PUSH2 0xDF JUMP JUMPDEST PUSH0 DUP1 REVERT JUMPDEST PUSH0 DUP2 SWAP1 POP SWAP2 SWAP1 POP JUMP JUMPDEST PUSH2 0x93 DUP2 PUSH2 0x81 JUMP JUMPDEST DUP2 EQ PUSH2 0x9D JUMPI PUSH0 DUP1 REVERT JUMPDEST POP JUMP JUMPDEST PUSH0 DUP2 MLOAD SWAP1 POP PUSH2 0xAE DUP2 PUSH2 0x8A JUMP JUMPDEST SWAP3 SWAP2 POP POP JUMP JUMPDEST PUSH0 PUSH1 0x20 DUP3 DUP5 SUB SLT ISZERO PUSH2 0xC9 JUMPI PUSH2 0xC8 PUSH2 0x7D JUMP JUMPDEST JUMPDEST PUSH0 PUSH2 0xD6 DUP5 DUP3 DUP6 ADD PUSH2 0xA0 JUMP JUMPDEST SWAP2 POP POP SWAP3 SWAP2 POP POP JUMP JUMPDEST PUSH2 0xD66 DUP1 PUSH2 0xEC PUSH0 CODECOPY PUSH0 RETURN INVALID PUSH1 0x80 PUSH1 0x40 MSTORE PUSH1 0x4 CALLDATASIZE LT PUSH2 0x90 JUMPI PUSH0 CALLDATALOAD PUSH1 0xE0 SHR DUP1 PUSH4 0xB69EF8A8 GT PUSH2 0x58 JUMPI DUP1 PUSH4 0xB69EF8A8 EQ PUSH2 0x156 JUMPI DUP1 PUSH4 0xB76D4FC3 EQ PUSH2 0x180 JUMPI DUP1 PUSH4 0xCE845D1D EQ PUSH2 0x1AA JUMPI DUP1 PUSH4 0xD0E30DB0 EQ PUSH2 0x1D4 JUMPI DUP1 PUSH4 0xE3ABC2BC EQ PUSH2 0x1DE JUMPI PUSH2 0x90 JUMP JUMPDEST DUP1 PUSH4 0x155DD5EE EQ PUSH2 0x94 JUMPI DUP1 PUSH4 0x27E235E3 EQ PUSH2 0xB0 JUMPI DUP1 PUSH4 0x7729837F EQ PUSH2 0xEC JUMPI DUP1 PUSH4 0x7C3A00FD EQ PUSH2 0x102 JUMPI DUP1 PUSH4 0x8DA5CB5B EQ PUSH2 0x12C JUMPI JUMPDEST PUSH0 DUP1 REVERT JUMPDEST PUSH2 0xAE PUSH1 0x4 DUP1 CALLDATASIZE SUB DUP2 ADD SWAP1 PUSH2 0xA9 SWAP2 SWAP1 PUSH2 0x802 JUMP JUMPDEST PUSH2 0x21B JUMP JUMPDEST STOP JUMPDEST CALLVALUE DUP1 ISZERO PUSH2 0xBB JUMPI PUSH0 DUP1 REVERT JUMPDEST POP PUSH2 0xD6 PUSH1 0x4 DUP1 CALLDATASIZE SUB DUP2 ADD SWAP1 PUSH2 0xD1 SWAP2 SWAP1 PUSH2 0x887 JUMP JUMPDEST PUSH2 0x3C3 JUMP JUMPDEST PUSH1 0x40 MLOAD PUSH2 0xE3 SWAP2 SWAP1 PUSH2 0x8C1 JUMP JUMPDEST PUSH1 0x40 MLOAD DUP1 SWAP2 SUB SWAP1 RETURN JUMPDEST CALLVALUE DUP1 ISZERO PUSH2 0xF7 JUMPI PUSH0 DUP1 REVERT JUMPDEST POP PUSH2 0x100 PUSH2 0x3D8 JUMP JUMPDEST STOP JUMPDEST CALLVALUE DUP1 ISZERO PUSH2 0x10D JUMPI PUSH0 DUP1 REVERT JUMPDEST POP PUSH2 0x116 PUSH2 0x579 JUMP JUMPDEST PUSH1 0x40 MLOAD PUSH2 0x123 SWAP2 SWAP1 PUSH2 0x8C1 JUMP JUMPDEST PUSH1 0x40 MLOAD DUP1 SWAP2 SUB SWAP1 RETURN JUMPDEST CALLVALUE DUP1 ISZERO PUSH2 0x137 JUMPI PUSH0 DUP1 REVERT JUMPDEST POP PUSH2 0x140 PUSH2 0x57F JUMP JUMPDEST PUSH1 0x40 MLOAD PUSH2 0x14D SWAP2 SWAP1 PUSH2 0x8E9 JUMP JUMPDEST PUSH1 0x40 MLOAD DUP1 SWAP2 SUB SWAP1 RETURN JUMPDEST CALLVALUE DUP1 ISZERO PUSH2 0x161 JUMPI PUSH0 DUP1 REVERT JUMPDEST POP PUSH2 0x16A PUSH2 0x5A2 JUMP JUMPDEST PUSH1 0x40 MLOAD PUSH2 0x177 SWAP2 SWAP1 PUSH2 0x8C1 JUMP JUMPDEST PUSH1 0x40 MLOAD DUP1 SWAP2 SUB SWAP1 RETURN JUMPDEST CALLVALUE DUP1 ISZERO PUSH2 0x18B JUMPI PUSH0 DUP1 REVERT JUMPDEST POP PUSH2 0x194 PUSH2 0x5A8 JUMP JUMPDEST PUSH1 0x40 MLOAD PUSH2 0x1A1 SWAP2 SWAP1 PUSH2 0x9E6 JUMP JUMPDEST PUSH1 0x40 MLOAD DUP1 SWAP2 SUB SWAP1 RETURN JUMPDEST CALLVALUE DUP1 ISZERO PUSH2 0x1B5 JUMPI PUSH0 DUP1 REVERT JUMPDEST POP PUSH2 0x1BE PUSH2 0x652 JUMP JUMPDEST PUSH1 0x40 MLOAD PUSH2 0x1CB SWAP2 SWAP1 PUSH2 0x8C1 JUMP JUMPDEST PUSH1 0x40 MLOAD DUP1 SWAP2 SUB SWAP1 RETURN JUMPDEST PUSH2 0x1DC PUSH2 0x65B JUMP JUMPDEST STOP JUMPDEST CALLVALUE DUP1 ISZERO PUSH2 0x1E9 JUMPI PUSH0 DUP1 REVERT JUMPDEST POP PUSH2 0x204 PUSH1 0x4 DUP1 CALLDATASIZE SUB DUP2 ADD SWAP1 PUSH2 0x1FF SWAP2 SWAP1 PUSH2 0xA06 JUMP JUMPDEST PUSH2 0x791 JUMP JUMPDEST PUSH1 0x40 MLOAD PUSH2 0x212 SWAP3 SWAP2 SWAP1 PUSH2 0xA44 JUMP JUMPDEST PUSH1 0x40 MLOAD DUP1 SWAP2 SUB SWAP1 RETURN JUMPDEST PUSH0 DUP2 GT DUP1 ISZERO PUSH2 0x22C JUMPI POP PUSH1 0x1 SLOAD DUP2 GT ISZERO JUMPDEST PUSH2 0x26B JUMPI PUSH1 0x40 MLOAD PUSH32 0x8C379A000000000000000000000000000000000000000000000000000000000 DUP2 MSTORE PUSH1 0x4 ADD PUSH2 0x262 SWAP1 PUSH2 0xAC5 JUMP JUMPDEST PUSH1 0x40 MLOAD DUP1 SWAP2 SUB SWAP1 REVERT JUMPDEST PUSH0 DUP1 SLOAD SWAP1 PUSH2 0x100 EXP SWAP1 DIV PUSH20 0xFFFFFFFFFFFFFFFFFFFFFFFFFFFFFFFFFFFFFFFF AND PUSH20 0xFFFFFFFFFFFFFFFFFFFFFFFFFFFFFFFFFFFFFFFF AND PUSH2 0x8FC DUP3 SWAP1 DUP2 ISZERO MUL SWAP1 PUSH1 0x40 MLOAD PUSH0 PUSH1 0x40 MLOAD DUP1 DUP4 SUB DUP2 DUP6 DUP9 DUP9 CALL SWAP4 POP POP POP POP ISZERO DUP1 ISZERO PUSH2 0x2CD JUMPI RETURNDATASIZE PUSH0 DUP1 RETURNDATACOPY RETURNDATASIZE PUSH0 REVERT JUMPDEST POP DUP1 PUSH1 0x1 PUSH0 DUP3 DUP3 SLOAD PUSH2 0x2DF SWAP2 SWAP1 PUSH2 0xB10 JUMP JUMPDEST SWAP3 POP POP DUP2 SWAP1 SSTORE POP PUSH1 0x4 PUSH0 CALLER PUSH20 0xFFFFFFFFFFFFFFFFFFFFFFFFFFFFFFFFFFFFFFFF AND PUSH20 0xFFFFFFFFFFFFFFFFFFFFFFFFFFFFFFFFFFFFFFFF AND DUP2 MSTORE PUSH1 0x20 ADD SWAP1 DUP2 MSTORE PUSH1 0x20 ADD PUSH0 KECCAK256 PUSH1 0x40 MLOAD DUP1 PUSH1 0x40 ADD PUSH1 0x40 MSTORE DUP1 CALLVALUE DUP2 MSTORE PUSH1 0x20 ADD TIMESTAMP DUP2 MSTORE POP SWAP1 DUP1 PUSH1 0x1 DUP2 SLOAD ADD DUP1 DUP3 SSTORE DUP1 SWAP2 POP POP PUSH1 0x1 SWAP1 SUB SWAP1 PUSH0 MSTORE PUSH1 0x20 PUSH0 KECCAK256 SWAP1 PUSH1 0x2 MUL ADD PUSH0 SWAP1 SWAP2 SWAP1 SWAP2 SWAP1 SWAP2 POP PUSH0 DUP3 ADD MLOAD DUP2 PUSH0 ADD SSTORE PUSH1 0x20 DUP3 ADD MLOAD DUP2 PUSH1 0x1 ADD SSTORE POP POP CALLER PUSH20 0xFFFFFFFFFFFFFFFFFFFFFFFFFFFFFFFFFFFFFFFF AND PUSH32 0x7FCF532C15F0A6DB0BD6D0E038BEA71D30D808C7D98CB3BF7268A95BF5081B65 DUP3 PUSH1 0x40 MLOAD PUSH2 0x3B8 SWAP2 SWAP1 PUSH2 0x8C1 JUMP JUMPDEST PUSH1 0x40 MLOAD DUP1 SWAP2 SUB SWAP1 LOG2 POP JUMP JUMPDEST PUSH1 0x3 PUSH1 0x20 MSTORE DUP1 PUSH0 MSTORE PUSH1 0x40 PUSH0 KECCAK256 PUSH0 SWAP2 POP SWAP1 POP SLOAD DUP2 JUMP JUMPDEST PUSH0 DUP1 SLOAD SWAP1 PUSH2 0x100 EXP SWAP1 DIV PUSH20 0xFFFFFFFFFFFFFFFFFFFFFFFFFFFFFFFFFFFFFFFF AND PUSH20 0xFFFFFFFFFFFFFFFFFFFFFFFFFFFFFFFFFFFFFFFF AND CALLER PUSH20 0xFFFFFFFFFFFFFFFFFFFFFFFFFFFFFFFFFFFFFFFF AND EQ PUSH2 0x465 JUMPI PUSH1 0x40 MLOAD PUSH32 0x8C379A000000000000000000000000000000000000000000000000000000000 DUP2 MSTORE PUSH1 0x4 ADD PUSH2 0x45C SWAP1 PUSH2 0xBB3 JUMP JUMPDEST PUSH1 0x40 MLOAD DUP1 SWAP2 SUB SWAP1 REVERT JUMPDEST PUSH0 PUSH1 0x64 PUSH1 0x2 SLOAD PUSH1 0x1 SLOAD PUSH2 0x478 SWAP2 SWAP1 PUSH2 0xBD1 JUMP JUMPDEST PUSH2 0x482 SWAP2 SWAP1 PUSH2 0xC3F JUMP JUMPDEST SWAP1 POP DUP1 PUSH1 0x1 PUSH0 DUP3 DUP3 SLOAD PUSH2 0x495 SWAP2 SWAP1 PUSH2 0xC6F JUMP JUMPDEST SWAP3 POP POP DUP2 SWAP1 SSTORE POP PUSH1 0x4 PUSH0 CALLER PUSH20 0xFFFFFFFFFFFFFFFFFFFFFFFFFFFFFFFFFFFFFFFF AND PUSH20 0xFFFFFFFFFFFFFFFFFFFFFFFFFFFFFFFFFFFFFFFF AND DUP2 MSTORE PUSH1 0x20 ADD SWAP1 DUP2 MSTORE PUSH1 0x20 ADD PUSH0 KECCAK256 PUSH1 0x40 MLOAD DUP1 PUSH1 0x40 ADD PUSH1 0x40 MSTORE DUP1 DUP4 DUP2 MSTORE PUSH1 0x20 ADD TIMESTAMP DUP2 MSTORE POP SWAP1 DUP1 PUSH1 0x1 DUP2 SLOAD ADD DUP1 DUP3 SSTORE DUP1 SWAP2 POP POP PUSH1 0x1 SWAP1 SUB SWAP1 PUSH0 MSTORE PUSH1 0x20 PUSH0 KECCAK256 SWAP1 PUSH1 0x2 MUL ADD PUSH0 SWAP1 SWAP2 SWAP1 SWAP2 SWAP1 SWAP2 POP PUSH0 DUP3 ADD MLOAD DUP2 PUSH0 ADD SSTORE PUSH1 0x20 DUP3 ADD MLOAD DUP2 PUSH1 0x1 ADD SSTORE POP POP CALLER PUSH20 0xFFFFFFFFFFFFFFFFFFFFFFFFFFFFFFFFFFFFFFFF AND PUSH32 0x65724BAB62E2B372C625ED834016C4E1750F8074AAD18B22844457F35EA61D73 DUP3 PUSH1 0x40 MLOAD PUSH2 0x56E SWAP2 SWAP1 PUSH2 0x8C1 JUMP JUMPDEST PUSH1 0x40 MLOAD DUP1 SWAP2 SUB SWAP1 LOG2 POP JUMP JUMPDEST PUSH1 0x2 SLOAD DUP2 JUMP JUMPDEST PUSH0 DUP1 SLOAD SWAP1 PUSH2 0x100 EXP SWAP1 DIV PUSH20 0xFFFFFFFFFFFFFFFFFFFFFFFFFFFFFFFFFFFFFFFF AND DUP2 JUMP JUMPDEST PUSH1 0x1 SLOAD DUP2 JUMP JUMPDEST PUSH1 0x60 PUSH1 0x4 PUSH0 CALLER PUSH20 0xFFFFFFFFFFFFFFFFFFFFFFFFFFFFFFFFFFFFFFFF AND PUSH20 0xFFFFFFFFFFFFFFFFFFFFFFFFFFFFFFFFFFFFFFFF AND DUP2 MSTORE PUSH1 0x20 ADD SWAP1 DUP2 MSTORE PUSH1 0x20 ADD PUSH0 KECCAK256 DUP1 SLOAD DUP1 PUSH1 0x20 MUL PUSH1 0x20 ADD PUSH1 0x40 MLOAD SWAP1 DUP2 ADD PUSH1 0x40 MSTORE DUP1 SWAP3 SWAP2 SWAP1 DUP2 DUP2 MSTORE PUSH1 0x20 ADD PUSH0 SWAP1 JUMPDEST DUP3 DUP3 LT ISZERO PUSH2 0x649 JUMPI DUP4 DUP3 SWAP1 PUSH0 MSTORE PUSH1 0x20 PUSH0 KECCAK256 SWAP1 PUSH1 0x2 MUL ADD PUSH1 0x40 MLOAD DUP1 PUSH1 0x40 ADD PUSH1 0x40 MSTORE SWAP1 DUP2 PUSH0 DUP3 ADD SLOAD DUP2 MSTORE PUSH1 0x20 ADD PUSH1 0x1 DUP3 ADD SLOAD DUP2 MSTORE POP POP DUP2 MSTORE PUSH1 0x20 ADD SWAP1 PUSH1 0x1 ADD SWAP1 PUSH2 0x606 JUMP JUMPDEST POP POP POP POP SWAP1 POP SWAP1 JUMP JUMPDEST PUSH0 PUSH1 0x1 SLOAD SWAP1 POP SWAP1 JUMP JUMPDEST PUSH0 CALLVALUE GT PUSH2 0x69D JUMPI PUSH1 0x40 MLOAD PUSH32 0x8C379A000000000000000000000000000000000000000000000000000000000 DUP2 MSTORE PUSH1 0x4 ADD PUSH2 0x694 SWAP1 PUSH2 0xD12 JUMP JUMPDEST PUSH1 0x40 MLOAD DUP1 SWAP2 SUB SWAP1 REVERT JUMPDEST CALLVALUE PUSH1 0x1 PUSH0 DUP3 DUP3 SLOAD PUSH2 0x6AE SWAP2 SWAP1 PUSH2 0xC6F JUMP JUMPDEST SWAP3 POP POP DUP2 SWAP1 SSTORE POP PUSH1 0x4 PUSH0 CALLER PUSH20 0xFFFFFFFFFFFFFFFFFFFFFFFFFFFFFFFFFFFFFFFF AND PUSH20 0xFFFFFFFFFFFFFFFFFFFFFFFFFFFFFFFFFFFFFFFF AND DUP2 MSTORE PUSH1 0x20 ADD SWAP1 DUP2 MSTORE PUSH1 0x20 ADD PUSH0 KECCAK256 PUSH1 0x40 MLOAD DUP1 PUSH1 0x40 ADD PUSH1 0x40 MSTORE DUP1 CALLVALUE DUP2 MSTORE PUSH1 0x20 ADD TIMESTAMP DUP2 MSTORE POP SWAP1 DUP1 PUSH1 0x1 DUP2 SLOAD ADD DUP1 DUP3 SSTORE DUP1 SWAP2 POP POP PUSH1 0x1 SWAP1 SUB SWAP1 PUSH0 MSTORE PUSH1 0x20 PUSH0 KECCAK256 SWAP1 PUSH1 0x2 MUL ADD PUSH0 SWAP1 SWAP2 SWAP1 SWAP2 SWAP1 SWAP2 POP PUSH0 DUP3 ADD MLOAD DUP2 PUSH0 ADD SSTORE PUSH1 0x20 DUP3 ADD MLOAD DUP2 PUSH1 0x1 ADD SSTORE POP POP CALLER PUSH20 0xFFFFFFFFFFFFFFFFFFFFFFFFFFFFFFFFFFFFFFFF AND PUSH32 0xE1FFFCC4923D04B559F4D29A8BFC6CDA04EB5B0D3C460751C2402C5C5CC9109C CALLVALUE PUSH1 0x40 MLOAD PUSH2 0x787 SWAP2 SWAP1 PUSH2 0x8C1 JUMP JUMPDEST PUSH1 0x40 MLOAD DUP1 SWAP2 SUB SWAP1 LOG2 JUMP JUMPDEST PUSH1 0x4 PUSH1 0x20 MSTORE DUP2 PUSH0 MSTORE PUSH1 0x40 PUSH0 KECCAK256 DUP2 DUP2 SLOAD DUP2 LT PUSH2 0x7AA JUMPI PUSH0 DUP1 REVERT JUMPDEST SWAP1 PUSH0 MSTORE PUSH1 0x20 PUSH0 KECCAK256 SWAP1 PUSH1 0x2 MUL ADD PUSH0 SWAP2 POP SWAP2 POP POP DUP1 PUSH0 ADD SLOAD SWAP1 DUP1 PUSH1 0x1 ADD SLOAD SWAP1 POP DUP3 JUMP JUMPDEST PUSH0 DUP1 REVERT JUMPDEST PUSH0 DUP2 SWAP1 POP SWAP2 SWAP1 POP JUMP JUMPDEST PUSH2 0x7E1 DUP2 PUSH2 0x7CF JUMP JUMPDEST DUP2 EQ PUSH2 0x7EB JUMPI PUSH0 DUP1 REVERT JUMPDEST POP JUMP JUMPDEST PUSH0 DUP2 CALLDATALOAD SWAP1 POP PUSH2 0x7FC DUP2 PUSH2 0x7D8 JUMP JUMPDEST SWAP3 SWAP2 POP POP JUMP JUMPDEST PUSH0 PUSH1 0x20 DUP3 DUP5 SUB SLT ISZERO PUSH2 0x817 JUMPI PUSH2 0x816 PUSH2 0x7CB JUMP JUMPDEST JUMPDEST PUSH0 PUSH2 0x824 DUP5 DUP3 DUP6 ADD PUSH2 0x7EE JUMP JUMPDEST SWAP2 POP POP SWAP3 SWAP2 POP POP JUMP JUMPDEST PUSH0 PUSH20 0xFFFFFFFFFFFFFFFFFFFFFFFFFFFFFFFFFFFFFFFF DUP3 AND SWAP1 POP SWAP2 SWAP1 POP JUMP JUMPDEST PUSH0 PUSH2 0x856 DUP3 PUSH2 0x82D JUMP JUMPDEST SWAP1 POP SWAP2 SWAP1 POP JUMP JUMPDEST PUSH2 0x866 DUP2 PUSH2 0x84C JUMP JUMPDEST DUP2 EQ PUSH2 0x870 JUMPI PUSH0 DUP1 REVERT JUMPDEST POP JUMP JUMPDEST PUSH0 DUP2 CALLDATALOAD SWAP1 POP PUSH2 0x881 DUP2 PUSH2 0x85D JUMP JUMPDEST SWAP3 SWAP2 POP POP JUMP JUMPDEST PUSH0 PUSH1 0x20 DUP3 DUP5 SUB SLT ISZERO PUSH2 0x89C JUMPI PUSH2 0x89B PUSH2 0x7CB JUMP JUMPDEST JUMPDEST PUSH0 PUSH2 0x8A9 DUP5 DUP3 DUP6 ADD PUSH2 0x873 JUMP JUMPDEST SWAP2 POP POP SWAP3 SWAP2 POP POP JUMP JUMPDEST PUSH2 0x8BB DUP2 PUSH2 0x7CF JUMP JUMPDEST DUP3 MSTORE POP POP JUMP JUMPDEST PUSH0 PUSH1 0x20 DUP3 ADD SWAP1 POP PUSH2 0x8D4 PUSH0 DUP4 ADD DUP5 PUSH2 0x8B2 JUMP JUMPDEST SWAP3 SWAP2 POP POP JUMP JUMPDEST PUSH2 0x8E3 DUP2 PUSH2 0x84C JUMP JUMPDEST DUP3 MSTORE POP POP JUMP JUMPDEST PUSH0 PUSH1 0x20 DUP3 ADD SWAP1 POP PUSH2 0x8FC PUSH0 DUP4 ADD DUP5 PUSH2 0x8DA JUMP JUMPDEST SWAP3 SWAP2 POP POP JUMP JUMPDEST PUSH0 DUP2 MLOAD SWAP1 POP SWAP2 SWAP1 POP JUMP JUMPDEST PUSH0 DUP3 DUP3 MSTORE PUSH1 0x20 DUP3 ADD SWAP1 POP SWAP3 SWAP2 POP POP JUMP JUMPDEST PUSH0 DUP2 SWAP1 POP PUSH1 0x20 DUP3 ADD SWAP1 POP SWAP2 SWAP1 POP JUMP JUMPDEST PUSH2 0x934 DUP2 PUSH2 0x7CF JUMP JUMPDEST DUP3 MSTORE POP POP JUMP JUMPDEST PUSH1 0x40 DUP3 ADD PUSH0 DUP3 ADD MLOAD PUSH2 0x94E PUSH0 DUP6 ADD DUP3 PUSH2 0x92B JUMP JUMPDEST POP PUSH1 0x20 DUP3 ADD MLOAD PUSH2 0x961 PUSH1 0x20 DUP6 ADD DUP3 PUSH2 0x92B JUMP JUMPDEST POP POP POP POP JUMP JUMPDEST PUSH0 PUSH2 0x972 DUP4 DUP4 PUSH2 0x93A JUMP JUMPDEST PUSH1 0x40 DUP4 ADD SWAP1 POP SWAP3 SWAP2 POP POP JUMP JUMPDEST PUSH0 PUSH1 0x20 DUP3 ADD SWAP1 POP SWAP2 SWAP1 POP JUMP JUMPDEST PUSH0 PUSH2 0x994 DUP3 PUSH2 0x902 JUMP JUMPDEST PUSH2 0x99E DUP2 DUP6 PUSH2 0x90C JUMP JUMPDEST SWAP4 POP PUSH2 0x9A9 DUP4 PUSH2 0x91C JUMP JUMPDEST DUP1 PUSH0 JUMPDEST DUP4 DUP2 LT ISZERO PUSH2 0x9D9 JUMPI DUP2 MLOAD PUSH2 0x9C0 DUP9 DUP3 PUSH2 0x967 JUMP JUMPDEST SWAP8 POP PUSH2 0x9CB DUP4 PUSH2 0x97E JUMP JUMPDEST SWAP3 POP POP PUSH1 0x1 DUP2 ADD SWAP1 POP PUSH2 0x9AC JUMP JUMPDEST POP DUP6 SWAP4 POP POP POP POP SWAP3 SWAP2 POP POP JUMP JUMPDEST PUSH0 PUSH1 0x20 DUP3 ADD SWAP1 POP DUP2 DUP2 SUB PUSH0 DUP4 ADD MSTORE PUSH2 0x9FE DUP2 DUP5 PUSH2 0x98A JUMP JUMPDEST SWAP1 POP SWAP3 SWAP2 POP POP JUMP JUMPDEST PUSH0 DUP1 PUSH1 0x40 DUP4 DUP6 SUB SLT ISZERO PUSH2 0xA1C JUMPI PUSH2 0xA1B PUSH2 0x7CB JUMP JUMPDEST JUMPDEST PUSH0 PUSH2 0xA29 DUP6 DUP3 DUP7 ADD PUSH2 0x873 JUMP JUMPDEST SWAP3 POP POP PUSH1 0x20 PUSH2 0xA3A DUP6 DUP3 DUP7 ADD PUSH2 0x7EE JUMP JUMPDEST SWAP2 POP POP SWAP3 POP SWAP3 SWAP1 POP JUMP JUMPDEST PUSH0 PUSH1 0x40 DUP3 ADD SWAP1 POP PUSH2 0xA57 PUSH0 DUP4 ADD DUP6 PUSH2 0x8B2 JUMP JUMPDEST PUSH2 0xA64 PUSH1 0x20 DUP4 ADD DUP5 PUSH2 0x8B2 JUMP JUMPDEST SWAP4 SWAP3 POP POP POP JUMP JUMPDEST PUSH0 DUP3 DUP3 MSTORE PUSH1 0x20 DUP3 ADD SWAP1 POP SWAP3 SWAP2 POP POP JUMP JUMPDEST PUSH32 0x496E76616C6964205769746864726177616C20616D6F756E7400000000000000 PUSH0 DUP3 ADD MSTORE POP JUMP JUMPDEST PUSH0 PUSH2 0xAAF PUSH1 0x19 DUP4 PUSH2 0xA6B JUMP JUMPDEST SWAP2 POP PUSH2 0xABA DUP3 PUSH2 0xA7B JUMP JUMPDEST PUSH1 0x20 DUP3 ADD SWAP1 POP SWAP2 SWAP1 POP JUMP JUMPDEST PUSH0 PUSH1 0x20 DUP3 ADD SWAP1 POP DUP2 DUP2 SUB PUSH0 DUP4 ADD MSTORE PUSH2 0xADC DUP2 PUSH2 0xAA3 JUMP JUMPDEST SWAP1 POP SWAP2 SWAP1 POP JUMP JUMPDEST PUSH32 0x4E487B7100000000000000000000000000000000000000000000000000000000 PUSH0 MSTORE PUSH1 0x11 PUSH1 0x4 MSTORE PUSH1 0x24 PUSH0 REVERT JUMPDEST PUSH0 PUSH2 0xB1A DUP3 PUSH2 0x7CF JUMP JUMPDEST SWAP2 POP PUSH2 0xB25 DUP4 PUSH2 0x7CF JUMP JUMPDEST SWAP3 POP DUP3 DUP3 SUB SWAP1 POP DUP2 DUP2 GT ISZERO PUSH2 0xB3D JUMPI PUSH2 0xB3C PUSH2 0xAE3 JUMP JUMPDEST JUMPDEST SWAP3 SWAP2 POP POP JUMP JUMPDEST PUSH32 0x4F6E6C79206F776E65722063616E2063616C6C20746869732066756E6374696F PUSH0 DUP3 ADD MSTORE PUSH32 0x6E00000000000000000000000000000000000000000000000000000000000000 PUSH1 0x20 DUP3 ADD MSTORE POP JUMP JUMPDEST PUSH0 PUSH2 0xB9D PUSH1 0x21 DUP4 PUSH2 0xA6B JUMP JUMPDEST SWAP2 POP PUSH2 0xBA8 DUP3 PUSH2 0xB43 JUMP JUMPDEST PUSH1 0x40 DUP3 ADD SWAP1 POP SWAP2 SWAP1 POP JUMP JUMPDEST PUSH0 PUSH1 0x20 DUP3 ADD SWAP1 POP DUP2 DUP2 SUB PUSH0 DUP4 ADD MSTORE PUSH2 0xBCA DUP2 PUSH2 0xB91 JUMP JUMPDEST SWAP1 POP SWAP2 SWAP1 POP JUMP JUMPDEST PUSH0 PUSH2 0xBDB DUP3 PUSH2 0x7CF JUMP JUMPDEST SWAP2 POP PUSH2 0xBE6 DUP4 PUSH2 0x7CF JUMP JUMPDEST SWAP3 POP DUP3 DUP3 MUL PUSH2 0xBF4 DUP2 PUSH2 0x7CF JUMP JUMPDEST SWAP2 POP DUP3 DUP3 DIV DUP5 EQ DUP4 ISZERO OR PUSH2 0xC0B JUMPI PUSH2 0xC0A PUSH2 0xAE3 JUMP JUMPDEST JUMPDEST POP SWAP3 SWAP2 POP POP JUMP JUMPDEST PUSH32 0x4E487B7100000000000000000000000000000000000000000000000000000000 PUSH0 MSTORE PUSH1 0x12 PUSH1 0x4 MSTORE PUSH1 0x24 PUSH0 REVERT JUMPDEST PUSH0 PUSH2 0xC49 DUP3 PUSH2 0x7CF JUMP JUMPDEST SWAP2 POP PUSH2 0xC54 DUP4 PUSH2 0x7CF JUMP JUMPDEST SWAP3 POP DUP3 PUSH2 0xC64 JUMPI PUSH2 0xC63 PUSH2 0xC12 JUMP JUMPDEST JUMPDEST DUP3 DUP3 DIV SWAP1 POP SWAP3 SWAP2 POP POP JUMP JUMPDEST PUSH0 PUSH2 0xC79 DUP3 PUSH2 0x7CF JUMP JUMPDEST SWAP2 POP PUSH2 0xC84 DUP4 PUSH2 0x7CF JUMP JUMPDEST SWAP3 POP DUP3 DUP3 ADD SWAP1 POP DUP1 DUP3 GT ISZERO PUSH2 0xC9C JUMPI PUSH2 0xC9B PUSH2 0xAE3 JUMP JUMPDEST JUMPDEST SWAP3 SWAP2 POP POP JUMP JUMPDEST PUSH32 0x4465706F73697420616D6F756E74206D75737420626520677265617465722074 PUSH0 DUP3 ADD MSTORE PUSH32 0x68616E2030000000000000000000000000000000000000000000000000000000 PUSH1 0x20 DUP3 ADD MSTORE POP JUMP JUMPDEST PUSH0 PUSH2 0xCFC PUSH1 0x25 DUP4 PUSH2 0xA6B JUMP JUMPDEST SWAP2 POP PUSH2 0xD07 DUP3 PUSH2 0xCA2 JUMP JUMPDEST PUSH1 0x40 DUP3 ADD SWAP1 POP SWAP2 SWAP1 POP JUMP JUMPDEST PUSH0 PUSH1 0x20 DUP3 ADD SWAP1 POP DUP2 DUP2 SUB PUSH0 DUP4 ADD MSTORE PUSH2 0xD29 DUP2 PUSH2 0xCF0 JUMP JUMPDEST SWAP1 POP SWAP2 SWAP1 POP JUMP INVALID LOG2 PUSH5 0x6970667358 0x22 SLT KECCAK256 PUSH3 0x9619C6 EXP ADD 0xAC PUSH13 0xF7F92F352A7CB9DADEA70177B8 0xD5 PUSH16 0xB68B88E7A88C4CDE64736F6C634300 ADDMOD AND STOP CALLER "
		},
		"gasEstimates": {
			"creation": {
				"codeDepositCost": "686000",
				"executionCost": "infinite",
				"totalCost": "infinite"
			},
			"external": {
				"balance()": "2425",
				"balances(address)": "2825",
				"creditInterest()": "infinite",
				"currentBalance()": "2476",
				"deposit()": "infinite",
				"getTransactionHistory()": "infinite",
				"interestRate()": "2492",
				"owner()": "2594",
				"transactionHistory(address,uint256)": "infinite",
				"withdrawFunds(uint256)": "infinite"
			}
		},
		"methodIdentifiers": {
			"balance()": "b69ef8a8",
			"balances(address)": "27e235e3",
			"creditInterest()": "7729837f",
			"currentBalance()": "ce845d1d",
			"deposit()": "d0e30db0",
			"getTransactionHistory()": "b76d4fc3",
			"interestRate()": "7c3a00fd",
			"owner()": "8da5cb5b",
			"transactionHistory(address,uint256)": "e3abc2bc",
			"withdrawFunds(uint256)": "155dd5ee"
		}
	},
	"abi": [
		{
			"inputs": [
				{
					"internalType": "uint256",
					"name": "_interestRate",
					"type": "uint256"
				}
			],
			"stateMutability": "nonpayable",
			"type": "constructor"
		},
		{
			"anonymous": false,
			"inputs": [
				{
					"indexed": true,
					"internalType": "address",
					"name": "account",
					"type": "address"
				},
				{
					"indexed": false,
					"internalType": "uint256",
					"name": "amount",
					"type": "uint256"
				}
			],
			"name": "Deposit",
			"type": "event"
		},
		{
			"anonymous": false,
			"inputs": [
				{
					"indexed": true,
					"internalType": "address",
					"name": "account",
					"type": "address"
				},
				{
					"indexed": false,
					"internalType": "uint256",
					"name": "amount",
					"type": "uint256"
				}
			],
			"name": "InterestCredited",
			"type": "event"
		},
		{
			"anonymous": false,
			"inputs": [
				{
					"indexed": true,
					"internalType": "address",
					"name": "account",
					"type": "address"
				},
				{
					"indexed": false,
					"internalType": "uint256",
					"name": "amount",
					"type": "uint256"
				}
			],
			"name": "Withdrawal",
			"type": "event"
		},
		{
			"inputs": [],
			"name": "balance",
			"outputs": [
				{
					"internalType": "uint256",
					"name": "",
					"type": "uint256"
				}
			],
			"stateMutability": "view",
			"type": "function"
		},
		{
			"inputs": [
				{
					"internalType": "address",
					"name": "",
					"type": "address"
				}
			],
			"name": "balances",
			"outputs": [
				{
					"internalType": "uint256",
					"name": "",
					"type": "uint256"
				}
			],
			"stateMutability": "view",
			"type": "function"
		},
		{
			"inputs": [],
			"name": "creditInterest",
			"outputs": [],
			"stateMutability": "nonpayable",
			"type": "function"
		},
		{
			"inputs": [],
			"name": "currentBalance",
			"outputs": [
				{
					"internalType": "uint256",
					"name": "",
					"type": "uint256"
				}
			],
			"stateMutability": "view",
			"type": "function"
		},
		{
			"inputs": [],
			"name": "deposit",
			"outputs": [],
			"stateMutability": "payable",
			"type": "function"
		},
		{
			"inputs": [],
			"name": "getTransactionHistory",
			"outputs": [
				{
					"components": [
						{
							"internalType": "uint256",
							"name": "amount",
							"type": "uint256"
						},
						{
							"internalType": "uint256",
							"name": "timestamp",
							"type": "uint256"
						}
					],
					"internalType": "struct SavingsAccount.Transaction[]",
					"name": "",
					"type": "tuple[]"
				}
			],
			"stateMutability": "view",
			"type": "function"
		},
		{
			"inputs": [],
			"name": "interestRate",
			"outputs": [
				{
					"internalType": "uint256",
					"name": "",
					"type": "uint256"
				}
			],
			"stateMutability": "view",
			"type": "function"
		},
		{
			"inputs": [],
			"name": "owner",
			"outputs": [
				{
					"internalType": "address",
					"name": "",
					"type": "address"
				}
			],
			"stateMutability": "view",
			"type": "function"
		},
		{
			"inputs": [
				{
					"internalType": "address",
					"name": "",
					"type": "address"
				},
				{
					"internalType": "uint256",
					"name": "",
					"type": "uint256"
				}
			],
			"name": "transactionHistory",
			"outputs": [
				{
					"internalType": "uint256",
					"name": "amount",
					"type": "uint256"
				},
				{
					"internalType": "uint256",
					"name": "timestamp",
					"type": "uint256"
				}
			],
			"stateMutability": "view",
			"type": "function"
		},
		{
			"inputs": [
				{
					"internalType": "uint256",
					"name": "amount",
					"type": "uint256"
				}
			],
			"name": "withdrawFunds",
			"outputs": [],
			"stateMutability": "payable",
			"type": "function"
		}
	]
}